:100000000C94F5010C9412020C9412020C9412023E
:100010000C9412020C9412020C9412020C94120210
:100020000C9412020C9412020C940D200C94E120FA
:100030000C94AC1A0C9412020C9412020C9412023E
:100040000C9412020C9412020C9412020C941202E0
:100050000C9412020C94331B0C9412020C94120296
:100060000C9412020C9412020C9412020C941202C0
:100070000C9412020C9412020C9412020C941202B0
:100080000C9412020C9412020C9412020C941202A0
:100090000C9412020C9412020C9412020C94120290
:1000A0000C9412020C9412020C94120229004A00C1
:1000B0004B004E002F003000330034003600370074
:1000C0003800000035001E001F0020002100220023
:1000D0002300240025002600270000002B00140028
:1000E0001A000800150017001C0018000C00120070
:1000F00013000000390004001600070009000A0080
:100100000B000D000E000F0028000000E1001D0094
:100110001B0006001900050011001000E500520048
:100120004C000000E0002152E2002C005000510081
:100130004F002A002D002E003100000000000000BA
:1001400000000000000000000000000000000000AF
:100150000000000000003A003B003C003D003E0073
:100160003F0040004100420043000000000000004A
:10017000000000000000000000000000000000007F
:100180004600000000000000000000000000000029
:10019000000000000000000000000000000000005F
:1001A000000000000000000000000000000000004F
:1001B000000000000000000000000000000000003F
:1001C00000000000440045000000000000000000A6
:1001D000000000002A2B28000000000000000000A2
:1001E0000000000000000029000000002C1E342048
:1001F000212224342627252E362D3738271E1F206E
:100200002122232425263333362E37381F040506B2
:100210000708090A0B0C0D0E0F10111213141516F6
:100220001718191A1B1C1D2F3130232D35040506F4
:100230000708090A0B0C0D0E0F10111213141516D6
:100240001718191A1B1C1D2F3130354C00000000E7
:10025000000000000000000000000000000000009E
:10026000000000000000000000000000000000008E
:100270007E0F00D4FFFFFFC7000000780E0374005C
:1002800061006C006C003600360000000E03520066
:10029000610074006100740061000000040309043F
:1002A00009025B00030100A0FA0904000001030138
:1002B0000100092111010001224000070581030806
:1002C00000010904010002030000000921110100DE
:1002D00001222200070582032000010705030320F5
:1002E00000010904020001030000000921110100BE
:1002F00001227B0007058403200001120100020097
:100300000000087DFE70000001010200010660FF90
:100310000961A1010962150026FF00952075088179
:10032000020963150026FF00952075089102C0059B
:10033000010902A10185020901A10005091901298C
:10034000081500250195087501810205010930098C
:10035000311581257F95027508810609381581259B
:100360007F950175088106050C0A38021581257FE5
:10037000950175088106C0C005010980A1018503AA
:1003800019012AB700150126B700950175108100E3
:10039000C0050C0901A101850419012AA00215015B
:1003A00026A002950175108100C005010906A10172
:1003B000050719E029E71500250195087501810257
:1003C0009501750881010507190029FF150026FF11
:1003D0000095067508810005081901290595057520
:1003E000019102950175039101C011241FBECFEF49
:1003F000DAE0DEBFCDBF11E0A0E0B1E0E0E6F7E477
:1004000002C005900D92AA3AB107D9F722E0AAEAF4
:10041000B1E001C01D92AD38B207E1F70E94491169
:100420000C945C230C94000082E008958230B8F4B0
:100430006630A8F44C3098F450E09CE0699F400D81
:10044000511D1124FA0198E4899FE00DF11D11243A
:10045000EE0FFF1FE455FF4F85919491089581E0C1
:1004600090E0089581E008950E943202089581E0AD
:1004700008950E94320208950E9439020895089555
:100480000E943F020895A6E0B0E0E9E4F2E00C9497
:10049000B82249835A839E833091B10189819A8120
:1004A00031111AC03E81332399F0222389F00E9432
:1004B000AE07182F682F89819A810E948A07698167
:1004C0007A81812F0E94BD0E2696E3E00C94D422FF
:1004D0000E949C07182FF3CF0E94AE0769817A8192
:1004E000F1CFFC01262F408151816281738184818B
:1004F00095810E9443020895CF93DF93EC0161E060
:100500000E947102BE010E943402DF91CF910895D2
:10051000CF93DF93EC0160E00E947102BE010E9464
:100520004002DF91CF91089508950E9486060E94AF
:1005300094022FEF84E39CE0215080409040E1F74B
:1005400000C0000008950E9495020E94571B089564
:100550000E9495020E94681B08950F931F93CF93EA
:10056000DF938C0161E00E947102EC01B8010E94EE
:100570004014811106C080E0DF91CF911F910F914F
:100580000895B801CE010E943C028823A1F3B8016E
:10059000CE010E940019882371F3B801CE010E9498
:1005A0002715882341F3B801CE010E9472188823D1
:1005B00011F3B801CE010E9444198823E1F2F80139
:1005C0008581882361F0C330FCE7DF07E9F058F448
:1005D000C115ECE7DE07A9F0C130DC47B9F0C8016E
:1005E0000E943702C9CFCB358CE7D807A9F0CC35AC
:1005F000ECE7DE0771F0CA35DC4789F70E94060C8C
:10060000EECF0E94A302B7CF0E940E0C0E94A80258
:10061000B2CF0E94FC0BE3CF0E940A0CE0CF0E94F5
:10062000881A0E94360308950E943A030E948D1A88
:100630000895089581E008950895CF93DF93D82F0A
:100640000E941A03C82F882319F08D2F0E941C03C3
:100650008C2FDF91CF9108950895CF93C82F0E94DA
:1006600019038C2F0E941D03CF91089580E00E94F2
:100670002D0308950E9497190E942D030895CF938A
:100680000E949719C82F8091AC018C1779F0C09304
:10069000AC010E94181B6093AD017093AE01809372
:1006A000AF019093B0018C2F0E942D03CF9108953C
:1006B000ADE0B0E0EEE5F3E00C94B922488759874D
:1006C0006A877B878C879D8791110E94340B1F82DC
:1006D00086E0FE013896DE01119601900D928A9512
:1006E000E1F78D8181110DC029813A814B815C81B7
:1006F0006D817E818F810E94670A2D96E2E00C94C5
:10070000D522CE0101960E947C028111EDCFF5CF5A
:10071000FC012481213021F4808191810E94DB073A
:100720000895662329F00E94CD110E94A012089519
:100730000E942712FACFCF93C82F8823B9F08CEFED
:100740008C0F813AA8F46C2F8091000190910101E7
:100750000E94191A882329F08C2F0E94F40A0E9403
:100760006D0B8C2F0E94EC0A0E946D0BCF910895A7
:1007700080E28C0F883048F4C77081E001C0880F98
:10078000CA95EAF70E94170BEFCFEBE5EC0FE330C9
:1007900040F4F0E0E45BFE4F808190E00E94BD19E0
:1007A000E5CFE8E5EC0FEB3150F4F0E0EE0FFF1F82
:1007B000EA5EFE4F808191810E94E219D7CF83E3E8
:1007C0008C0F833198F661E08C2F0E949103CECF7D
:1007D000882381F19CEF980F913A28F40E94F40A43
:1007E0000E946D0B089590E2980F983050F4877036
:1007F00091E001C0990F8A95EAF7892F0E941D0B9D
:10080000EFCF9BE5980F933028F490E080E00E94B2
:10081000BD19089598E5980F9B3128F490E080E089
:100820000E94E219089593E3980F933118F460E061
:100830000E94910308951F93CF93DF93182FEB012C
:100840000E949B03209739F4812F0E94E803DF91D7
:10085000CF911F9108958FE99FE00197F1F700C0B4
:1008600000002197EFCF70E060E0893311F460E57C
:1008700070E00E941B040895882321F00E94170B4A
:100880000E946D0B0895882321F00E941D0B0E9489
:100890006D0B0895B0E0A0E0E0E5F4E00C94B22226
:1008A0006C01D62FC72FFC011581068102950F70B0
:1008B0000E940D0BE82E8823E9F0E12E1123D1F0E0
:1008C0008C2F807F803451F080E28D0F8830F8F0DB
:1008D000011104C08C2F807E8032C9F080916302A8
:1008E00082FF15C082E00E94D00B0E940D0B91E0A8
:1008F000E82EE926BC2EB2949FE0B922FBE0FB155E
:10090000B8F1EB2DF0E0E25AFC4D0C949C22E12C66
:10091000F1CF0C2F0F70C07F11F00295007F1123D3
:1009200099F0002359F080E28D0F883010F0D1113A
:1009300007C0802F0E94170B0E946D0B8D2F5AC08D
:10094000802F0E94270BF8CF8D2F0E94E8030023F1
:1009500079F080E28D0F883010F0D11104C0802F23
:100960000E941D0B03C0802F0E942D0B0E946D0B57
:10097000EB2DE850FF0B349720F40E9497190E944A
:100980002D03EE2089F00E94090B80FD0DC0F601B9
:1009900015820E94030B0E94FE06C6010E944D06AE
:1009A0000E94030B0E940A07CDB7DEB7E9E00C9462
:1009B000CE222C2F2F70F22EC07FC03219F0F2946D
:1009C00080EFF822DD2341F0D130D1F1112309F479
:1009D00044C00023F1F0B2CF8091630282FD15C0C4
:1009E000112359F0FF2029F08F2D0E94170B0E9430
:1009F0006D0B80E00E949B03BBCF80E00E94E80368
:100A0000FF2009F4B5CF8F2DABCF112369F0011171
:100A100004C08F2D0E943C04ABCF013009F0A8CF59
:100A20008F2D0E944B0BA4CF0111A2CF8F2D0E94BE
:100A300043048F2D0E94570B8F2D0E943B0B98CFA4
:100A4000112321F0063008F093CFE3CF053008F0F2
:100A50008FCF8F2D0E9443048BCF0023D1F3D93346
:100A600049F43FEF87EE93E0315080409040E1F74A
:100A700000C000008D2F0E94E8037ACF8C2F86954E
:100A80008695837069F0813009F072CF8D2F9C2F8D
:100A90009370111102C080E090E00E94E21968CFCB
:100AA0008D2F9C2F9370111102C080E090E00E9466
:100AB000BD195ECF612F8D2F0E94910359CF8C2FCE
:100AC000837079F5111154CF4D2F4295469547709B
:100AD000440F440F8D2F8F70042E01C0880F0A948D
:100AE000EAF72D2F2071D4FF07C02FE030E001C0BE
:100AF000220F4A95EAF72095C695C695C370822BBA
:100B0000C23049F058F4C13019F00E94DA0630CFF3
:100B10000E94D4062DCF0E94E0062ACF0E94D10663
:100B200027CF8695112311F08C2F8170882309F42B
:100B30001FCF4D2F429546954770440F440F8D2F80
:100B40008F70042E01C0880F0A94EAF72D2F2071B0
:100B5000D4FF07C02FE030E001C0220F4A95EAF72A
:100B60002095C695C695C370822BC23049F058F4C3
:100B7000C13019F00E942907FBCE0E942307F8CE4E
:100B80000E942F07F5CE0E94EC06F2CECF70112303
:100B900029F08C2F0E94FE068D2F3CCF8D2F0E94B6
:100BA00043048C2F0E940A07E3CED23F41F160F448
:100BB000D03FB9F0D13F81F0112309F446C00111B3
:100BC000BDCE8C2F8F711FC0D33F01F1D43FA1F751
:100BD0008091630282FD24C08C2F8F71112311F349
:100BE00012C0112341F0053008F0C2CE8C2F8F7156
:100BF0000E941707BDCE063008F0BACEF7CF8C2F73
:100C00008F711111CFCF0E94FE06B2CE112329F0B1
:100C10008C2F8F710E94F506ABCE0E94F106A8CEF4
:100C2000112349F0CF718C2F0E94FE0663E08C2FB8
:100C30000E94B20B9DCE81E00E94D00B023008F4DE
:100C400097CE82E00E94D00B93CE002359F0D93387
:100C500009F010CFEFEFF7EE23E0E150F040204035
:100C6000E1F706CF8C2F8F719DCF0F931F93CF93FA
:100C7000DF93EC01688179818D810E94E6078C0108
:100C80000E9435070E94D006B801CE010E944A0496
:100C9000DF91CF911F910F910895CF93DF93EC01D6
:100CA0008C81882399F0CE010E94AD02811111C080
:100CB0000E940D0B882351F08D81882339F080919B
:100CC000630282FF03C082E00E94D00BDF91CF91CC
:100CD0000895CE010E943506CE010E948802F6CF0B
:100CE00090E080E00E94BD1990E080E00E94E2194F
:100CF0000E94340B0E946D0B0E94BC120E94A01235
:100D000008950E94FC0A0E94700608950E94240B18
:100D10000E948106089592959F70963091F058F444
:100D2000925F9F70923058F4803F19F030F4883E03
:100D300030F481E008959A5FF4CF843FD1F380E0EE
:100D40000895883EB0F3813FD1F7F3CFFC012481B1
:100D5000222339F0808191810E94DB070E948B065B
:100D6000089580E00895A6E0B0E0E9EBF6E00C9489
:100D7000B9222696E2E00C94D522A7E0B0E0E3EC9D
:100D8000F6E00C94B9222796E2E00C94D52208955F
:100D90000E94C70608950E94C8068093CE01089558
:100DA00008950E94CB0608959091CE01892B0E9450
:100DB000CB0608959091CE0189230E94CB06089519
:100DC0009091CE0189270E94CB0608950E94C70604
:100DD00008950E94E60608950E94E9068093CD01D9
:100DE000089580E00E94EC06089591E001C0990FFB
:100DF0008A95EAF7892F0E94EC06089521E030E0F9
:100E000001C0220F8A95EAF78091CD01822B0E94C2
:100E1000EC06089521E030E001C0220F8A95EAF740
:100E200020958091CD0182230E94EC06089521E057
:100E300030E001C0220F8A95EAF78091CD01822728
:100E40000E94EC0608959091CD01892B0E94EC063A
:100E500008959091CD0189230E94EC060895909108
:100E6000CD0189270E94EC0608950895262F27704A
:100E700091E001C0990F2A95EAF723E076956795EE
:100E80002A95E1F7FB01EE0FFF1FE60FF71FE40FB6
:100E9000F51F50E040E0682F70E08191DF0111976D
:100EA0009B01042E02C0369527950A94E2F7217023
:100EB00021952827292328272C934F5F5F4F433004
:100EC000510559F70895A82FA77023E096958795A7
:100ED0002A95E1F7FC01EE0FFF1FE80FF91FE60F5F
:100EE000F71F50E040E080E0219130E00A2E02C080
:100EF000369527950A94E2F721703327042E01C016
:100F0000220F0A94EAF7822B4F5F5F4F433051055F
:100F100059F70895262F963070F48C3060F4682FBE
:100F200070E08CE0989F600D711D112442EB51E040
:100F3000822F0E9436070895292F963068F48C304E
:100F400058F490E062EB71E03CE0239F800D911D2E
:100F500011240E946307089580E00895CF92DF92E4
:100F6000FF920F931F93CF93DF936C010091CD01FC
:100F70008091CE01082BC3E0D0E010E0FC2EC80128
:100F80000C2E02C0959587950A94E2F780FD0CC05F
:100F90002197A0F7F12C8F2DDF91CF911F910F9109
:100FA000FF90DF90CF900895B6018C2F0E94C90E5C
:100FB000019771F3F0CFCF93DF93EC010E94AE075E
:100FC000BE010E94C90EDF91CF9108951F93CF9368
:100FD000DF93EB019091B101992339F0CB010E948D
:100FE000DB07DF91CF911F910895882369F0CB0132
:100FF0000E94AE07182F682FCE010E948A07BE01FB
:10100000812F0E94C90EEDCFCB010E949C07182FA3
:10101000F6CFE1E0F0E0DF0102C0AA0FBB1F6A9546
:10102000E2F7BD01DF0102C0AA0FBB1F4A95E2F73C
:101030006A2B01C0EE0F2A95EAF7962F9823961394
:1010400002C08E2B0895E0958E230895242F462FFD
:10105000682F8091CD010E9409080E94EC06089536
:101060001F93CF93DF93C091CF0117E08091D00100
:101070008C1304C0DF91CF911F910895D0E01C9F85
:10108000F0011D9FF00D1124EF52FE4F20813181A0
:10109000428153816481758186810E94BD062196BB
:1010A000C770E4CF2091090230910A0240910B02EF
:1010B00050910C0260910D0270910E0280910F020E
:1010C0000E94BD060895CF93DF9380910F02807F29
:1010D00009F04DC080910E02882309F448C0E091C8
:1010E000CF015091D001C0910A02D09109026091C4
:1010F0000B0270910C0247E05E17C9F18E2F90E051
:10110000E49FF0011124EF52FE4F2481222391F13C
:10111000489FF001499FF00D1124DF01AF52BE4FEF
:1011200011962C9111972C1325C02C912D1322C0B0
:1011300015962C91159721111DC012962D913C9159
:10114000261B370B283C3105A8F480910F028F70C5
:10115000806180930F02E952FE4F80818F70806121
:10116000808389E092E00E944D060E943008DF9162
:10117000CF910895FC013196E770BECF482F2091A2
:10118000CF019091D00157E0291302C080E008956B
:1011900030E0529FF001539FF00D1124EF52FE4FAB
:1011A0008181681306C08081481303C08581811145
:1011B000EECF2F5F3F4F2770E7CFA4E1B0E0E3EE23
:1011C000F8E00C94AF228C0186E0F801DE011F9656
:1011D00001900D928A95E1F7F8018481E58099E00C
:1011E000A92E92E0B92E90910D0291111FC0882373
:1011F000D1F0EE20A9F0C8010E94A606F82E88239F
:1012000079F087E0F801D50101900D928A95E1F718
:10121000C5010E9488030E9463080E9452085FC0B3
:10122000C8010E944D06FF24F39459C0C080D180AC
:1012300082809380F0900E0220910B0230910C027C
:10124000A401421B530BFF2009F4F9C0483C51058F
:1012500008F0A7C0882309F442C090910A02809147
:101260000F02282F207F09F05CC09D1116C09091BD
:101270000902C91212C0E1104EC08F7080618093C4
:101280000F020E94520889E092E00E944D06809170
:101290000F02F8018683F12C22C0E1103CC06D2DB5
:1012A0008C2D0E94BE086D2D8C2D0E94BE08E82E4C
:1012B0008111F1CFCF86D88A8F8598890E94DB076C
:1012C000292F22952F70243078F49F702230A8F0B7
:1012D0009923B9F0F8019681907F99F4FE2C8F2D17
:1012E0006496ECE00C94CB222A5F2F70223068F0D9
:1012F000C8010E944D06EF2CF1CF992311F08823ED
:1013000069F3805E883050F3F3CF803F38F3815F1C
:10131000833070F7E3CF80910F02816080930F02DA
:10132000BACF9D1113C090910902C9120FC0E110EC
:101330000DC08683C8010E944D0687E0F801A9E030
:10134000B2E001900D928A95E1F767CFC8010E9443
:10135000A606882309F464CFEE2009F461CF8091BA
:101360000F02803288F02091090230910A023987F9
:1013700028879B868A8690910D029C871D868E8782
:10138000CE0108960E944D0687E0F801A9E0B2E080
:1013900001900D928A95E1F70E9463080E9452081D
:1013A00042CF90910F02292F207FA1F4682D9A8AB5
:1013B000898AA6017A899E2D0E94B30689E092E06F
:1013C0000E944D0687E0F50111928A95E9F70E9487
:1013D000520861CF882309F482CF80910A028D11CF
:1013E00010C080910902C8120CC0E1100AC0968397
:1013F000C8010E944D0687E0F50111928A95E9F730
:101400006ECFC8010E94A606882309F409CFEE20FA
:1014100009F406CF80910F02803208F4B5CF2091F5
:10142000090230910A023A8329839C828B8290912F
:101430000D029D831E828F83CE010196A3CF483C6F
:101440005105B8F5882309F4EECEFE2CEE2009F400
:10145000E7CE80910A028D111EC080910902C81248
:101460001AC080910F0280FD0DC0982F907F51F01F
:101470008683903F09F45ECF982F907F905F8F70A6
:10148000892B57CF87E0F801A9E0B2E001900D92D7
:101490008A95E1F724CFC8010E94A606811174CF76
:1014A00080910F02816080930F02C8010E944D0657
:1014B00016CF682D9A8A898AA6017A899E2D0E9464
:1014C000B30687E0F50111928A95E9F7A6CEAEE062
:1014D000B0E0EDE6FAE00C94B822288739874A8715
:1014E0005B876C877D878E87CE0108960E94DD081A
:1014F0008823B1F06C85662341F0288539854A85BB
:101500005B857D858E850E94BD0617E08091CF01A9
:101510009091D00189133DC02E96E3E00C94D42223
:1015200087E0FE013896DE01119601900D928A95B2
:10153000E1F78C85882349F32091D00130E0C9017F
:101540000196877099274091CF014817190699F0A5
:1015500097E0929FD001939FB00D1124AF52BE4FE0
:10156000FE01319601900D929A95E1F78093D0019A
:101570000E943008CACF0E9486061092D0011092B5
:10158000CF0187E0E9E0F2E0DF011D928A95E9F7FB
:10159000BCCF819FC00111248F529E4F0E94DD0855
:1015A000882309F4B9CFE091CF011E9FF0011124E7
:1015B000EF52FE4F208131814281538164817581D8
:1015C00086810E94BD068091CF0190E001968770D0
:1015D00099278093CF019ACF682F80910001909135
:1015E00001010E944F1A0895682F80910001909187
:1015F00001010E94521A0895809100019091010109
:101600000E94551A089580911802869586958695B0
:10161000089580911802877008959091180297702C
:1016200081E009F480E0089580912402089590916A
:101630002402892B8093240208958095909124029E
:101640009823909324020895109224020895909173
:101650002302892B80932302089580959091230281
:1016600098239093230208951092230208950895D9
:101670000E94370B089590911902292F282331F0E9
:1016800080958923809319020E94380B089508954C
:101690000E94470B089590911A02292F282328179A
:1016A00029F0982B90931A020E94480B089590916C
:1016B0001A02292F282331F08095892380931A025A
:1016C0000E94480B089580911A02882329F01092F5
:1016D0001A0280E00E94480B0895CF93DF93E091B7
:1016E0000001F0910101809124028083E0910001CA
:1016F000F0910101808190912302892B8083909148
:101700001A02992381F0E0910001F091010180819A
:10171000892B808380910001909101010E94071A1A
:1017200081110E94630BC0910001D091010148E03A
:1017300050E060E172E0CE010E94F422892B59F062
:1017400088E0FE01A0E1B2E001900D928A95E1F7F8
:10175000CE010E94A419DF91CF91089508950E94AF
:10176000AE0B08959091630292FF11C098E0899F9B
:1017700090011124622B609318020E94FE06809152
:1017800018028695869586950E94AF0B08950E9453
:10179000FE0608951092180280E00E94AF0B089593
:1017A000909118028095892380931802282F277022
:1017B00069F4891759F09091630292FF07C08695EA
:1017C000869586950E940A070E94CA0B08959091FB
:1017D000630292FB222720F9281769F080FB92F917
:1017E0009093630280916202909163020E94300C98
:1017F00082E00E94D00B08958091630282FB8827CB
:1018000080F991E089270E94E70B089581E00E940A
:10181000E70B089580E00E94E70B08956FEF7FEFDC
:1018200090E080E00E944623089590E080E00E94CE
:101830001223863E9E4F19F40E94DA13089580E029
:10184000089582E090E00E940A23089583E090E0EA
:101850000E940A23089584E090E00E9412230895D4
:10186000BC0184E090E00E9446230895AB01BC01D6
:101870008FE090E00E943A230895AB01BC0183E120
:1018800090E00E943A23089560E070E0CB010E944E
:101890003D0C089560E070E0CB010E94360C0E9480
:1018A000440C0895A8E0B0E0E8E5FCE00C94B9220F
:1018B00066EE7EEF90E080E00E94462360E082E0EA
:1018C00090E00E94282360E083E090E00E942823BB
:1018D0001092CE0160E074E184E090E00E94462323
:1018E00060E086E090E00E9428236FEF87E090E0C0
:1018F0000E94282340E050E0BA0188E090E00E9476
:101900003A2360E084E290E00E94282360E087E1CF
:1019100090E00E94282360E08CE090E00E94282361
:1019200060E08DE090E00E94282319821A821B82D9
:101930001C821D821E821F82188648E050E068E1EA
:1019400070E0CE0101960E94182340E050E0BA01F9
:1019500080E290E00E943A2380E00E94F3130E940C
:1019600022140E944A0C2896E2E00C94D5220E9490
:10197000520C0895682F8EE090E00E94282308956D
:10198000A6E0B0E0E6ECFCE00C94B7220E940C1B51
:101990008C0180912502909126028017910781F099
:1019A00019821A820E940C1B682F49815A81792F53
:1019B00080E090E00E9458031093260200932502D5
:1019C0002696E4E00C94D3220E94181B6093370201
:1019D000709338028093390290933A0260933302F5
:1019E00070933402809335029093360208950895DF
:1019F00008950E94F80C089508950E94FC0C089523
:101A000081E0089583EB9FE00E948D190E94F70CFE
:101A10000E94F90C08950E94000D08950E940B0D7C
:101A20000895089508950E94110D0E94120D0895C1
:101A30000E94D20F0E942C0308950E94031B0E9453
:101A400032140E94AA100E94180D0E94FD0C0895E5
:101A5000A6E0B0E0EEE2FDE00C94AD220E94000DA5
:101A600081110AC00E94C00C0E94DE120E943F0336
:101A70002696EEE00C94C9220E94C01027E2822E26
:101A800022E0922E640110E0F601E190F1906F01E6
:101A9000812F0E94F50F1F5F163009F44BC0E81626
:101AA000F90691F380913B0281FD0E94FE0F0E9496
:101AB0000E0D782E10E066246394812F0E94F50F9E
:101AC0007C01F401A190B1904F018A159B0561F151
:101AD000A826BF2400E0CC24C394D12CC5018C21BE
:101AE0009D21892BC1F07720B1F009831A830E94D0
:101AF0000C1B9C838B836D8221E0C7018C219D216F
:101B0000892B09F420E049815A816B817C818D8188
:101B1000922F0E9458030F5FCC0CDD1C0C30F1F6A5
:101B2000F4013297F182E0821F5F163031F60E9495
:101B3000E40C9ACFE816F90609F0B4CF93CF1F93BF
:101B4000CF93DF930E94CE0EEC01C11580E5D8073C
:101B5000F0F5C11580E4D80708F09CC0C03ED1055F
:101B600020F5CD3CD10508F082C0C83AD10578F403
:101B7000C53AD10508F073C0C130D10519F12097DD
:101B800009F1C430D105F0F4D0E0C0E01BC0C33C83
:101B9000D105D0F7C85AD0E0CC0FDD1FC15BDE4FB6
:101BA0000990D881C02DD4640DC0C11580E2D8073A
:101BB00008F0D1C0C11581E0D80708F05AC0C83E6E
:101BC000D10510F7CE01DF91CF911F910895C03656
:101BD00082E5D80718F5C03482E5D80708F06BC055
:101BE000C03282E5D80708F05FC0C11582E5D8078A
:101BF00008F497C02C2F2695269580E2289F900107
:101C000011248C2F8370C1E0D0E002C0CC0FDD1F07
:101C10008A95E2F7C22BD32BDD68D4CFC03A82E598
:101C2000D80760F4C03882E5D80708F459C0CF71EE
:101C3000D0E0DC2FCC27C46FD06AC4CFC03C82E593
:101C4000D80708F462C0C03E82E5D80708F09CCFF0
:101C5000DC2FCC27CC27DF71C06FD06AB3CFC55A39
:101C6000D0E0CB57DE4FC881D0E0D064ABCFD06599
:101C7000A9CF8D2F0E94700F182FCE0199270E9497
:101C8000CE0EC12FD0E0DC2FCC27CC27DF71C82BA4
:101C9000D92B98CFCE0199270E94CE0ECC27DF708A
:101CA000C82BD92BD06A8ECFCF71D0E0DC2FCC27B8
:101CB000C16FD06A87CF2C2F26952695277080E29A
:101CC000289F900111248C2F8370C1E0D0E002C0C6
:101CD000CC0FDD1F8A95E2F7C22BD32BDC6872CFC5
:101CE0002C2F26952695277080E2289F900111249D
:101CF0008C2F8370C1E0D0E002C0CC0FDD1F8A952D
:101D0000E2F7C22BD32BDA685DCF8C2F8F710E9444
:101D1000700FC82FD0E0DC2FCC27CC27DF71D0622A
:101D200051CF8C2F8F710E94700F55E0D695C795BB
:101D30005A95E1F7CF70D0E0DC2FCC27282F30E088
:101D400084FF05C044E0220F331F4A95E1F7C22B00
:101D5000D32BD06937CF8D2F8F710E94700F182F22
:101D6000CE0199270E94CE0EC12FD0E0DC2FCC27C8
:101D7000CC27DF71C82BD92BD2CF462F763030F449
:101D80006C3020F4672F0E948A17089590E080E05D
:101D900008950E94BD0E0E949F0D089582389105FE
:101DA000B9F1B0F48133910509F47DC048F489326A
:101DB000910509F46DC08A32910509F47BC008953C
:101DC0008533910509F45FC08933910509F10895C0
:101DD000833E9105D9F138F4803E910529F1823E88
:101DE000910579F10895863E9105D9F1873E9105D7
:101DF00009F43EC0843E910541F52091630221FF24
:101E000024C08091620284FD19C087EE90E008959D
:101E100020916202237009F05AC02091630223FFCF
:101E200014C089E290E008952091620220FD38C03C
:101E30003091630230FF09C024FF43C090E080E08E
:101E400008952091620222FDF7CF08952091620249
:101E500022FD3AC03091630230FD39C024FFF5CF36
:101E6000EDCF2091620223FFF0CF24FDE7CFCDCF4D
:101E70002091620223FD2EC03091630231FFEECF2C
:101E800084EE90E008952091620225FFDECFC9CF55
:101E90002091620225FD21C02091630223FFD5CF4E
:101EA00089E390E0D2CF2091620226FFCECF8AE272
:101EB00090E008952091620226FFC7CF81E390E071
:101EC000089583EE90E0089582EE90E0089580EE0C
:101ED00090E0089586EE90E0089585E390E00895FF
:101EE0009091620292FF06C0282F28712830F9F4E1
:101EF000877F846093FF06C0282F28712831F1F472
:101F0000877E84612091630220FF06C0382F3871DC
:101F10003830D9F4877F816021FF06C0282F2871CF
:101F20002831D1F4877E816194FD877E0895282F22
:101F300024712430F9F68B7F8860DCCF282F247140
:101F4000243101F78B7E8861DDCF382F317131303C
:101F500019F78E7F8860E0CF282F2171213121F77A
:101F60008E7E8861E1CF80E008950E940E0C089576
:101F70000E94C0102FEF86E791E0215080409040F2
:101F8000E1F700C000000E94C01080E00E94F50F41
:101F900080FF04C00E94B50F0E94571B08950E9445
:101FA000B80F08950E94150C811102C00E94B70C51
:101FB0000E94210C80933B020E942B0C90936302A1
:101FC000809362020E94CF0F0E94260C0E94D106CD
:101FD0008091CD010E94E906089508950E94ED0FB9
:101FE000089508950E94F10F0895E82FF0E0EE0F94
:101FF000FF1FE059FD4F808191810895089580EA87
:102000008A95F1F7089500C008950E94FF0F089582
:10201000F894E82FE295EF70F0E031A1282F2F70AF
:1020200081E090E001C0880F2A95EAF7982F9095FB
:10203000932391A392A1892B82A378940895CF939F
:10204000DF93C4E9D1E089918F3F11F00E9408101D
:1020500081E0CA39D807B9F7C8E8D1E089918F3F44
:1020600011F00E94081081E0C439D807B9F7DF9158
:10207000CF910895AF92BF92DF92EF92FF920F93AC
:102080001F93CF93DF938C01D62EC62FD0E0CE01C5
:102090008C569E4F7C01FC0120812F3F09F44DC0DE
:1020A000F894E22FE295EF70F0E031A12F7081E01B
:1020B00090E001C0880F2A95EAF7932F982B91A3FF
:1020C00092A18095892382A378940E940310E8E866
:1020D000F1E044E951E021E030E0B12CA12C619124
:1020E0006F3FA9F1A62FA295AF70B0E090968C91AA
:1020F00090E06F7002C0959587956A95E2F780FD34
:1021000026C0C901A82AB92A220F331F4E175F071C
:1021100031F7F70180818F3F11F00E94081061E0D4
:10212000A114B10409F460E08D2D0E940510CC0FBC
:10213000DD1FC00FD11FB982A882DF91CF911F91FF
:102140000F91FF90EF90DF90BF90AF90089590E0D7
:1021500080E0D8CF0E941F108CE0E0E7F2E0DF01C2
:10216000982F1D929A95E9F7E4E6F2E0DF011D92BF
:102170008A95E9F786E00E94FB100E94EE0F089511
:10218000ACE0B0E0E6ECF0E10C94B6228E010F5F1B
:102190001F4F8CE0F80111928A95E9F7F12C6F2D11
:1021A000C8010E943A10F394F6E0FF12F8CF4CE019
:1021B00050E0B80184E692E00E94F42221E000970A
:1021C00009F420E0892B41F08CE0F801A4E6B2E0AC
:1021D00001900D928A95E1F746E060E772E084E6AF
:1021E00092E00E94FC10182F0E94F20F812F2C9673
:1021F000E5E00C94D2220895CF92DF92EF92FF9205
:102200001F93CF93DF936C017B01C42F222349F0EE
:1022100081E080933E020E940C1B90933D028093CC
:102220003C0210913E0211110AC010E0812FDF9193
:10223000CF911F91FF90EF90DF90CF900895809104
:102240003C0290913D020E94241B059770F3D0E060
:10225000CC0FDD1FAE01B601C7010E94F422892B0D
:1022600041F0AE01B601C7010E94012310923E0267
:10227000DDCF10E0FBCF0E94E21C0E941D0D0E94EA
:10228000EF1C08950E94F41C0E94280D0E940E1D50
:1022900008950E94A51A0E94C81C0E94020D0E9467
:1022A0003B110E9442110E94130DFBCF8091450209
:1022B00080FF0DC06091070170E0660F771F6038E6
:1022C000710570F56115710569F1862F089581FF1B
:1022D00007C06091070184E0689FB0011124EFCF2F
:1022E0006091070182FD0AC0809144028823A9F011
:1022F0002091060160910701821710F088E0ECCF71
:10230000869FC001112433E0880F991F3A95E1F7A9
:10231000622F70E00E948822D2CF68E070E0D5CFB3
:102320008FE7089581E008958091450280FF0CC0F9
:102330006091030170E075956795759567956115D6
:10234000710549F1862F089581FF06C06091030150
:1023500070E075956795F3CF6091030182FD0BC026
:10236000909143029923A1F06091020180910301B1
:10237000961738F0682F70E06038710500F38FE72A
:102380000895899FC001112470E00E948822F4CF33
:1023900061E070E0D7CF81E008958D3C31F40E9478
:1023A000561181958093490208958E3C19F40E943C
:1023B0005611F8CF8F3C31F40E94561181958093CD
:1023C00048020895803D19F40E945611F8CF893DC6
:1023D00029F40E94941180934A0208958A3D21F4C1
:1023E0000E9494118195F7CF8B3D31F40E94941196
:1023F000819580934B0208958C3D19F40E949411AD
:10240000F8CF9FE2980F983070F4815D990B21E02E
:1024100030E001C0220F8A95EAF780914702822BB3
:102420008093470208958D3D31F48091450281608B
:102430008093450208958E3D21F48091450282608B
:10244000F7CF8F3DB9F7809145028460F1CF40917D
:1024500048028D3C59F48091490287FF0DC01092CB
:10246000490241110BC01092440208C08E3C81F415
:102470008091490218169CF3442381F080914A020E
:1024800090914B02892B09F05AC010924302089593
:102490008F3C49F447FFF0CF1092480280914902E7
:1024A0008111ECCFE0CF803D19F41416ACF3E4CFEA
:1024B00090914A02893D29F41916F4F610924A02C5
:1024C000DBCF8A3D19F497FFD7CFF8CF90914B021D
:1024D0008B3D29F497FFD0CF10924B02CDCF8C3D8E
:1024E00019F41916CCF3C8CF9FE2980F983090F4E6
:1024F000815D990B21E030E0B90102C0660F771FC2
:102500008A95E2F7CB0180959091470289238093C9
:102510004702B2CF8D3D31F4809145028E7F80938A
:102520004502AACF8E3D21F4809145028D7FF7CFE1
:102530008F3D09F0A1CF809145028B7FF0CF0895A8
:102540000E940C1B9C019091480280914902982B9B
:1025500021F0309342022093410290914A028091EF
:102560004B02982B21F03093400220933F0286E4E7
:1025700092E00E94AF19089586E0E6E4F2E0DF0100
:102580001D928A95E9F7109244021092430210922C
:1025900045020895FC01828181110EC08381811161
:1025A0000BC08481811108C091E08581811101C037
:1025B00090E0892F8170089581E0FCCFA6E0B0E023
:1025C000E4EEF2E10C94B82286E0E6E4F2E0DE010B
:1025D000119601900D928A95E1F71092480210929F
:1025E000490210924A0210924B028B819C81892BE6
:1025F00089F080914102909142020E94241BAC011B
:10260000909144029923C9F180910801841715061D
:1026100008F440C08D819E81892B91F080913F020A
:10262000909140020E94241BAC0190914302992397
:1026300009F471C0809104018417150608F479C06B
:10264000BE016F5F7F4F86E492E00E945C1A8111A9
:1026500005C086E492E00E94CA1281110E94A01275
:1026600086E0FE013196A6E4B2E001900D928A95D3
:10267000E1F72696E3E00C94D422209109018AE048
:10268000289F900111242417350720F69F5F90930F
:10269000440202C09F3FD1F71B81112359F00E94D1
:1026A00056119FEF11160CF491E0899F802D112493
:1026B000809348021C81112359F00E9456119FEF0C
:1026C00011160CF491E0899F802D1124809349020A
:1026D00030914802332309F49DCF209149022223EF
:1026E00009F498CF45EB3403C0011124992359F024
:1026F0009093480245EB240390011124332339F0D1
:102700003093490287CF81E080934802F3CF81E084
:10271000809349027FCF209105018AE0289F900194
:1027200011242417350708F08BCF9F5F9093430245
:1027300002C09F3FD1F71D81112359F00E949411CF
:102740009FEF11160CF491E0899F802D1124809346
:102750004A021E81112359F00E9494119FEF111615
:102760000CF491E0899F802D112480934B023091CD
:102770004A02332309F464CF20914B02222309F447
:102780005FCF45EB3403C0011124992359F0909396
:102790004A0245EB240390011124332339F030938E
:1027A0004B024ECF81E080934A02F3CF81E08093C9
:1027B0004B0246CF85E290E00E940A23833289F4DF
:1027C00086E290E00E940A23873059F487E290E085
:1027D0000E940A2391E0893009F090E0892F8170EE
:1027E000089580E0FCCFCF93C82F6FEF811163E293
:1027F00085E290E00E9428236FEFC11167E086E236
:1028000090E00E9428236FEFC11169E087E290E019
:102810000E942823CF910895089588E290E00E94B5
:102820000A23682F70E090E080E008950895CF9328
:10283000C62F0E9416146C2F88E290E00E94282375
:10284000CF91089580E00E94F31360E070E0CB0127
:102850000E9417140E9416170E94E51781E00E943B
:10286000F31308950E940C140E940D140E94161474
:102870000E94DA13811102C00E9422140895089563
:102880009C01FB018581882351F0A90157574038ED
:10289000510530F4822F0E94F51780E0089581E001
:1028A00008952FEFFC01208308950E94511408958C
:1028B00080E00895B0E0A0E0E0E6F4E10C94B322FB
:1028C000EC01C62E0E945814811110C0E881E1501D
:1028D000E331B8F4F0E0E659FC4D0C949C221982E7
:1028E0008CE08A836C2DCE010E94BC1BCDB7DEB775
:1028F000E8E00C94CF2289818230C1F028F4813045
:1029000061F08FEF8883EECF833099F08430C9F780
:102910001A821B821C821D82E5CF0E94181B0E9416
:10292000A2226A837B838C839D83DCCF0E940D145B
:10293000F6CF8A81082F10E07E019EE0D92ED80EB6
:102940000630110578F6802F0E94F50FF70193836A
:1029500084830F5F1F4FF2E0EF0EF11CD012F0CF17
:10296000C1CF8981823031F0853059F68A810E9449
:102970003F14B8CF6A817B818C819D810E94A22205
:102980000E941714AFCF4B816A8189810E94D816AB
:102990009827892798279D838C83A4CF2C813D81FC
:1029A0003227232732274B816A8189810E94FA16B8
:1029B00099CF0E94161796CF6C2DCE010E94551408
:1029C00091CF0E94961789838DCF0E9498179827E0
:1029D000892798279A83898385CF6B8170E08981C5
:1029E0009A81AE014C5F5F4F9827892798270E94F4
:1029F0009B1778CF6B8170E089819A81AE014C5F23
:102A00005F4F9827892798270E94C0176BCF0E9495
:102A1000E51768CF0E94C616D6CF6B8170E089811A
:102A20009A81AE014C5F5F4F9827892798270E94B3
:102A3000421758CF6B8170E089819A81AE014C5F5B
:102A40005F4F9827892798270E9466174BCFCF930F
:102A5000DF93EC01FB018581882309F4D2C09E013C
:102A600030572332310508F0B2C00E942B0C9093EE
:102A7000630280936202FE01E150F047E232F10509
:102A800020F4E358FC4D0C949C22809162028160FA
:102A90008093620293C08091630288608093630296
:102AA0008DC0809162028260F3CF80916202846067
:102AB000EFCF809162028860EBCF809163028160EA
:102AC000EDCF809163028260E9CF809162028061E4
:102AD000DFCF809162028062DBCF809162028064EE
:102AE000D7CF0E948606809162028068D1CF809104
:102AF00062028C60CDCF809163028360CFCF8091E2
:102B000062028E7FC5CF80916302877FC7CF80919D
:102B100062028D7FBDCF809162028B7FB9CF8091A1
:102B20006202877FB5CF809163028E7FB7CF80919D
:102B300063028D7FB3CF809162028F7EA9CF809197
:102B400062028F7DA5CF809162028F7BA1CF0E9410
:102B50008606809162028F779BCF80916202837F8D
:102B600097CF809163028C7F99CF8091620282FB24
:102B7000992790F921E0922790FB82F990FB83F945
:102B800087CF80916302982F909591708E7F892BCB
:102B900090FB81F983CF90916202892F8F7B96FF02
:102BA000806476CF0E94860690916202892F97FBFF
:102BB00087F980586DCF81E00E94BA0C8091620243
:102BC000909163020E94300C0E94860680E0DF91A3
:102BD000CF91089580E0F0CF90916202892F8F7E8F
:102BE00094FF806155CF90916202892F8E7F90FF74
:102BF00081604ECF90916302892F877F93FF886019
:102C00004DCF81E0E4CFB0E0A0E0E9E0F6E10C9444
:102C1000B422E82FF0E0E453FE4FD490282F2695FD
:102C20002695269530E0F901E459FD4F049187700F
:102C300010E0082E02C0159507950A94E2F701707E
:102C40001127F901E45AFD4FE490F12C082E02C03F
:102C5000F594E7940A94E2F791E0E922FF24F90160
:102C6000E45BFD4FC491D0E002C0D595C7958A952D
:102C7000E2F7C170DD270115110519F081EE0E9400
:102C80009B03E114F10419F086EE0E949B038D2D45
:102C90000E943304E114F10419F086EE0E94E80367
:102CA0000115110519F081EE0E94E803CD2B19F0F2
:102CB0008CE20E943304CDB7DEB7E7E00C94D0225B
:102CC000EF92FF920F931F93CF93DF93EC01162F98
:102CD0000AE08881882309F454C0813009F04EC08D
:102CE0008981813099F47E0122E0E20EF11C8A8113
:102CF0000E943304E7012196812F815050F3EFE9C0
:102D0000FFE03197F1F700C00000F7CF823041F4C7
:102D10007E0182E0E80EF11C8A810E949B03EACFCB
:102D2000833041F47E01E2E0EE0EF11C8A810E94C4
:102D3000E803E0CF843011F02196DDCF2A8122967E
:102D400090E080E0AE014F5F5F4F2053330B2A309D
:102D5000310548F0019778F2EFE9FFE03197F1F79C
:102D600000C00000F7CF089FB001099F700D11242B
:102D7000C901860F971F2981EA01E4CF0E9403163B
:102D8000BACFCDB7DEB7E6E00C94D12284E0089547
:102D900050E0440F551F98E1699F400D511D1124CB
:102DA00090E9899F400D511D1124CA01899608950B
:102DB0000F931F93CF93DF938430C8F46630B8F439
:102DC0004C30A8F40E94C8168C010E940A23C82F18
:102DD000D0E0DC2FCC27C80101960E940A239E0177
:102DE000282BC901DF91CF911F910F91089590E099
:102DF00080E0F8CF0F931F93CF93DF93122F032F11
:102E0000843078F4663068F44C3058F40E94C81668
:102E1000EC01602F0E942823612FCE0101960E94B1
:102E20002823DF91CF911F910F9108950F931F9346
:102E3000CF93DF93D0E0C0E010E019C00E941402ED
:102E400021E030E08C171D0639F034F0402F612F5F
:102E50008C2F0E9416029C01402F612F8C2F0E9404
:102E6000FA160F5F0C3051F71F5F163011F000E0BB
:102E7000E5CF2196C430D105F9F6DF91CF911F91AE
:102E80000F910895EF92FF920F931F93CF93DF93CB
:102E9000EC018A017C01E60EF71ECE018996CE1563
:102EA000DF0529F4CDB7DEB7E6E00C94D122C034BB
:102EB00022E0D20740F40E940A23F80180830F5FCA
:102EC0001F4F2196EACFF8011082F9CFB0E0A0E0C1
:102ED000ECE6F7E10C94B3227C016A018C01060F49
:102EE000171FEC01CE018996C017D10729F4CDB781
:102EF000DEB7E8E00C94CF22C03422E0D20740F4E1
:102F0000FE01EE19FF09EC0DFD1D60810E942823D2
:102F10002196E8CF843038F4663028F44C3018F429
:102F20000E94D816089590E080E0089580E1089509
:102F300087E991E00895EF92FF920F931F93CF934B
:102F4000DF93EC018A017C01E60EF71ECE01875962
:102F50009D4FCE15DF0529F4CDB7DEB7E6E00C9422
:102F6000D122C73921E0D20740F40E940A23F80198
:102F700080830F5F1F4F2196E9CFF8011082F9CFB0
:102F8000B0E0A0E0E6ECF7E10C94B3227C016A012A
:102F90008C01060F171FEC01CE0187599D4FC017FA
:102FA000D10729F4CDB7DEB7E8E00C94CF22C739BA
:102FB00021E0D20740F4FE01EE19FF09EC0DFD1DE2
:102FC00060810E9428232196E7CFCF93DF93C9E643
:102FD000D2E060E0CE010E9428232196C11584E052
:102FE000D807B9F7DF91CF910895A8E0B0E0EBEFF3
:102FF000F7E10C94B122F82E8FE08F1508F46EC023
:103000008FEF93E00E940A23811168C009E612E065
:10301000F11035C0FE0131966F0188E011928A955A
:10302000E9F77801FFEFEF1AFF0AC8010E940A23AF
:1030300089831A82882309F451C08130D1F4580160
:1030400082E0A80EB11CC7010E940A238A8388234C
:1030500009F444C09FEF980F9330F0F4780193E0A7
:10306000E90EF11CC5010E940A238B838823B1F16C
:103070001C8260E0C6010E9460168701D2CF011554
:1030800094E0190759F1C8010E940A23811101C077
:10309000FA940F5F1F4FBCCF7501843051F702E0E7
:1030A00010E07501EFEFEE1AFE0AC5010E940A2337
:1030B000F601E00FF11F8083882381F08C3741F403
:1030C000E2E0F0E0EC0FFD1FE00FF11F1082D1CF26
:1030D0000F5F1F4F57010730110519F72896EAE0D7
:1030E0000C94CD22CF93DF93EB0186319C4711F5F1
:1030F0000E94140B9D81992399F08A7A91E009F43A
:1031000090E090934C02811109C089E20E94EC0A80
:103110000E946D0B80E0DF91CF91089585E3F6CF9B
:1031200080914C02811104C089E20E94F40AF0CF20
:1031300085E3FBCF81E0EFCF0F931F93CF93DF9316
:10314000C42FD22FFC0185818823C9F040934F0200
:103150000E940C1B90934E0280934D0280E28C0FD4
:10316000883040F4C77081E001C0880FCA95EAF743
:103170000E943C04DF91CF911F910F91089510910F
:103180004F02141332C080914D0290914E020E9462
:10319000241B883C910548F5C0E2CD0F1D17B9F0FE
:1031A00080E2810F883040F4177081E001C0880F01
:1031B0001A95EAF70E944304C83048F481E09D2F35
:1031C000977001C0880F9A95EAF70E943C04802FFF
:1031D0000E943304C83070F6D77081E001C0880FB8
:1031E000DA95EAF70E944304C5CF80E28C0F88305D
:1031F00008F6C77081E001C0880FCA95EAF7F2CFE0
:103200000F93DB0188519C4787309105A0F5FC01A5
:10321000E156FC4D0C949C2206E221EE41EE6AE15F
:103220007CE7CD010E949C1880E00F91089507E291
:1032300025EE45EE6BE17CE7F4CF06E221EE40EEB1
:1032400068E17CE7EECF07E225EE44EE69E17CE73A
:10325000E8CF06E221EE42EE6CE17CE7E2CF07E246
:1032600025EE46EE6DE17CE7DCCF08E221E045EE9D
:103270006EE17CE7D6CF15968C91882319F01092D9
:103280004F02D3CF81E0D1CF1F93CF93DF93873706
:103290002CE7920759F0C1E088379C47E1F4FB0125
:1032A000C581CC2371F10E94871906C0FB01C5813D
:1032B000CC23B1F00E9484190E94FE060E948A1954
:1032C000D82F0E948719C82F0E9484194D2F6C2F68
:1032D0000E942608C0E08C2FDF91CF911F910895A6
:1032E0000E9484190E940A070E948A19182F0E94BE
:1032F0008719D82F0E948419412F6D2F0E9426080C
:10330000EACF0E948719EECF80910C010895809139
:103310000B01089580910A0108959093AB01809369
:10332000AA01089590935502809354020895E09164
:103330005402F0915502309729F00190F081E02D70
:103340000995089580E00895E0915402F0915502A6
:10335000309721F00280F381E02D09950895E091E6
:103360005402F0915502309739F022E0DC012C93A1
:103370000480F581E02D09950895A3E0B0E0E3EC29
:10338000F9E10C94B922209152023091530228178E
:103390003907A1F09093530280935202E0915402B6
:1033A000F0915502309751F023E029839B838A8363
:1033B0000680F781E02DCE01019609952396E2E083
:1033C0000C94D522A3E0B0E0E8EEF9E10C94B92228
:1033D000209150023091510228173907A1F09093A3
:1033E000510280935002E0915402F09155023097BF
:1033F00051F024E029839B838A830680F781E02DA6
:10340000CE01019609952396E2E00C94D5229C0109
:103410002E5F3F4FAC01485F5F4F80E024173507B8
:1034200009F40895F90191919F019923B9F38F5FF0
:10343000F5CF662349F0FC013296089621912617B4
:1034400029F0E817F907D1F780E0089581E00895A1
:103450009C01FC0132969FEF80E04191461751F0AC
:103460009F3F19F4411101C0982F8F5F8630A9F753
:103470009F3F09F40895290F311D97FD3A95F901F1
:1034800062830895FC01329608962191261303C0A9
:10349000DF0111971C92E817F907B9F708950E9408
:1034A000281A08950E94421A0895029626E0FC0107
:1034B00011922A95E9F7089546E050E00E94F4221F
:1034C00021E0892B09F420E0822F089508950E94BD
:1034D000661A0895811106C081E0809356020E9409
:1034E000671A089582E0F9CF83E0809356020E9424
:1034F000671A08950E946A1A089581E0809356021F
:103500000E94671A08950E947D1A089508950895EB
:103510000E94871A0895089508950E94861A0895B2
:10352000CF930E948B1A0E94C0100E948C1AC0E098
:103530008C2F0E94F50F892B31F4CF5FC630C1F775
:1035400080E0CF91089581E0FCCF85B7806885BF8A
:1035500085B7806885BF08951F921FB61F921124FA
:103560008F939F93AF93BF9380915702811113C0A4
:1035700080917C0290917D02A0917E02B0917F02A9
:103580004196A11DB11D80937C0290937D02A09372
:103590007E02B0937F02BF91AF919F918F911F9058
:1035A0001FBE1F90189580918402843031F10E94D3
:1035B0000F031092570288E190E020E40FB6F894D0
:1035C000A895809360000FBE2093600083B7817F31
:1035D000846083BF83B7816083BF7894889583B705
:1035E0008E7F83BF0FB6F894A895809160008861A4
:1035F00080936000109260000FBE08950E948606BE
:103600000E941403089582E084BD93E095BD9AEF73
:1036100097BD80936E0008952FB7F89480917C0237
:1036200090917D02A0917E02B0917F022FBF0895FC
:103630002FB7F89460917C0270917D0280917E0298
:1036400090917F022FBF08959C014FB7F89480910D
:103650007C0290917D02A0917E02B0917F024FBFCB
:10366000821B930B089578941F921FB61F9211240A
:103670008F939F93AF93BF9380917C0290917D0233
:10368000A0917E02B0917F020196A11DB11D809391
:103690007C0290937D02A0937E02B0937F02BF9143
:1036A000AF919F918F911F901FBE1F90189587E734
:1036B00097E7909301088093000888E19AE00FB69D
:1036C000F894A895809360000FBE90936000FFCFA0
:1036D00088E19AE00FB6F894A895809360000FBE39
:1036E00090936000FFCF8091600208959B01BA0122
:1036F000909184029430E9F48F708093E9009FEFF9
:103700008091E800915085FD06C085ED8A95F1F71E
:1037100000009111F5CF8091E80085FF0AC050E0CC
:1037200040E0C9010E94B21D8091E8008E7780932D
:10373000E800089543E050E0BC0184E00E94761B5D
:10374000089546E050E0BC0184E00E94761B089595
:10375000CF93DF93EC0148E050E0BC0181E00E9490
:10376000761B88E0FE01A8E5B2E001900D928A95F3
:10377000E1F7DF91CF910895603231F440E250E0FB
:10378000BC0182E00E94761B089580918302811122
:1037900009C00E94911F0E94EE1F8091E200846088
:1037A0008093E20008951092830208950E947D1A8A
:1037B00008956091800281E0611101C080E00E9463
:1037C000741A08959091840281E0943009F080E0A9
:1037D000609180020E947A1A089542E061EC81E0D3
:1037E0000E940D1F42E261EC84E00E940D1F42E244
:1037F00061EC82E00E940D1F42E260EC83E00E94D7
:103800000D1F9091840281E0943009F080E0609176
:1038100080020E946A1A089580918602833009F41A
:1038200063C030F48130E1F1823009F4A0C0089522
:103830008A3009F48CC08B3009F471C0893009F0EA
:1038400052C080918502813209F04DC08091890279
:1038500090918A02009719F0029709F044C0809174
:10386000E800877F8093E8008091E80082FF37C0FE
:103870009091F3008091F200029731F48091F10071
:10388000813011F0863021F48091F1008093600244
:103890008091E8008B778093E8000E94411F23C04D
:1038A00080918502813AF9F48091E800877F8093C6
:1038B000E8008091890290918A02892B61F468E086
:1038C00088E592E070E00E94501E8091E8008B77BE
:1038D0008093E800089560E090E080E0F3CF80916D
:1038E00084028111C1CF089580918502813AD9F770
:1038F0008091890290918A02892BA9F78091E80032
:10390000877F8093E8008091E80080FFFCCF809162
:1039100015018093F1008091E8008E77BCCF8091F3
:103920008502813201F78091890290918A02892B68
:10393000D1F68091E800877F8093E8000E94411FC4
:1039400080918702809315010E94860608958091D8
:103950008502813241F68091E800877F8093E800FC
:103960000E94411F80918802809361020895809196
:103970008502813A09F0B7CF8091E800877F809374
:10398000E8008091E80080FFFCCF80916102C1CF08
:1039900084B7877F84BF0FB6F894A89580916000A4
:1039A000886180936000109260000FBE80E890E014
:1039B0000FB6F89480936100909361000FBE0E944F
:1039C000831A08950E94911F0E94EE1FE2EEF0E01C
:1039D00080818460808378940E946D2208958DE0B8
:1039E00091E00E949219089580918402853031F40B
:1039F00080918402853019F00E94FE1A08950E9479
:103A0000D31A80918202882399F30E94901A882306
:103A100079F30E949C1D0E948606EACFA0E2B0E0E6
:103A2000E4E1FDE10C94B92280918402843009F52F
:103A300083E08093E9008091E80082FF1AC08091C2
:103A4000E80090E085FF09C050E040E060E270E0EF
:103A5000CE0101960E94011E91E08091E8008B77D3
:103A60008093E800992329F060E2CE0101960E943C
:103A70005A14A096E2E00C94D5229A0140918B0250
:103A800050918C020E94451D0895492F55274330BF
:103A9000510521F168F44130510509F443C0423029
:103AA000510509F444C090E080E050E040E026C0B9
:103AB0004132510551F142325105A9F76330710588
:103AC00090F7FB01EE0FFF1FE356FE4F408151813F
:103AD00066567E4FFB01808190E010C099278130AF
:103AE000910581F0009729F00297E9F6ECE7F2E002
:103AF00002C0ECE9F2E0849190E0AF01F90151835A
:103B000040830895ECE8F2E0F6CF6330710558F693
:103B1000660F771FFB01ED55FE4F4081518189E013
:103B200090E0ECCF82E190E04BEF52E0E7CF8BE505
:103B300090E040EA52E0E2CF80E189BD82E189BDB8
:103B400009B400FEFDCF8091D8008F7D8093D8000E
:103B50008091E00082608093E0008091E00081FD30
:103B6000FCCF0895AF92BF92CF92DF92FF920F9356
:103B70001F93CF93DF936C01EB018A010E94601FBA
:103B8000F82E811123C00115110539F0F80180814B
:103B90009181C81BD90BC80ED91EB12CA12C20971E
:103BA000A9F08091E80085FD22C08091E8008E7721
:103BB0008093E80001151105A1F0F8018081918141
:103BC000A80EB91EB182A08285E0F82E8F2DDF915C
:103BD000CF911F910F91FF90DF90CF90BF90AF904A
:103BE00008950E94601F8823D1F2F82EEFCFF601CE
:103BF00081916F018093F1002197FFEFAF1ABF0A07
:103C0000CECFAF92BF92CF92DF92FF920F931F93CE
:103C1000CF93DF936C01EB018A010E94601FF82EA5
:103C2000811123C00115110539F0F80180819181BE
:103C3000C81BD90BC80ED91EB12CA12C2097A9F0F6
:103C40008091E80085FD22C08091E8008B77809309
:103C5000E80001151105A1F0F80180819181A80EFD
:103C6000B91EB182A08285E0F82E8F2DDF91CF9111
:103C70001F910F91FF90DF90CF90BF90AF9008956C
:103C80000E94601F8823D1F2F82EEFCF8091F100BF
:103C9000F60181936F012197FFEFAF1ABF0ACECFD4
:103CA000FC0180918B0290918C0286179707A0F0FF
:103CB0006115710529F49091E8009E779093E800D2
:103CC00090E06115710551F4911108C08091E800F0
:103CD00082FF34C080E00895BC01F2CF809184025D
:103CE0008823C1F18530C1F18091E80083FD30C0A7
:103CF0008091E80082FDEACF8091E80080FFE1CF6B
:103D00008091F3002091F200382F6115710519F0B0
:103D10002830310558F091E02830310509F090E065
:103D20002091E8002E772093E800CBCF81918093FB
:103D3000F100615071092F5F3F4FE7CF80918402FE
:103D4000882341F0853041F08091E80083FFBECFA9
:103D500081E0089582E0089583E00895FC01809158
:103D60008B0290918C0286179707A0F06115710560
:103D700029F48091E8008E778093E80090E0611547
:103D8000710551F4911108C08091E80082FF35C09F
:103D900080E00895BC01F2CF809184028823C9F1AC
:103DA0008530C9F18091E80083FD31C08091E80041
:103DB00082FDEACF8091E80080FFE1CF8091F3009F
:103DC0002091F200382F6115710519F02830310566
:103DD00058F091E02830310509F090E08091E8003A
:103DE0008E778093E800CBCF84918093F100319659
:103DF000615071092F5F3F4FE6CF80918402882385
:103E000041F0853041F08091E80083FFBDCF81E033
:103E1000089582E0089583E00895982F973028F060
:103E20008F708093E90081E008959093E900242F3A
:103E3000762F50E0981731F07091EC002091ED0052
:103E40005091F00021FD02C09F5FE8CF3091EB0060
:103E50003E7F3093EB003091ED003D7F3093ED00DD
:103E60003091EB0031603093EB007093EC002093C5
:103E7000ED005093F0002091EE0027FDE5CF80E0AB
:103E800008958091850287FF13C08091E80082FF2A
:103E900006C08091E8008B778093E80004C0809191
:103EA00084028111F2CF0895809184028823D9F38E
:103EB0008091E80080FFF8CF8091E8008E77ECCF0A
:103EC0002091E4003091E50095E6A9012091EC00F5
:103ED000822F817020FF06C08091E80080FF06C01D
:103EE00080E008952091E80022FD1AC080918402AC
:103EF000882389F0853089F08091EB0085FD0FC023
:103F00002091E4003091E50042175307F9F29150F7
:103F1000E1F684E0089582E0089583E0089581E069
:103F200008950E9400200E940820E0EEF0E08081C9
:103F300081608083E8EDF0E080818F77808319BC19
:103F4000A7EDB0E08C918E7F8C9380818F7E8083F3
:103F50001092830208950F931F93CF93DF930E94D3
:103F600000200E940820C8EDD0E088818F778883E8
:103F700088818068888388818F7D888319BC1092AE
:103F8000840210928002109282021092810200EE4E
:103F900010E0F80180818B7F808388818160888335
:103FA00042E060E080E00E940D1FE1EEF0E08081E1
:103FB0008E7F8083E2EEF0E080818160808380816B
:103FC00088608083F80180818E7F80838881806112
:103FD0008883DF91CF911F910F910895E8EDF0E074
:103FE00080818F7E8083E7EDF0E080818160808337
:103FF00084E082BF81E0809383020E94AB1F08951A
:10400000E8EDF0E080818E7F80831092E2000895D9
:104010001092DA001092E10008951F920F920FB6ED
:104020000F9211242F933F934F935F936F937F933E
:104030008F939F93AF93BF93EF93FF938091E10092
:1040400082FF0BC08091E20082FF07C08091E100F7
:104050008B7F8093E1000E946C228091DA0080FFC8
:1040600019C08091D80080FF15C08091DA008E7F42
:104070008093DA008091D90080FF96C080E189BDED
:1040800082E189BD09B400FEFDCF81E08093840206
:104090000E94C51B8091E10080FF19C08091E20061
:1040A00080FF15C08091E2008E7F8093E2008091B6
:1040B000E20080618093E2008091D800806280936A
:1040C000D80019BC85E0809384020E94D91B80919E
:1040D000E10084FF2BC08091E20084FF27C080E1D3
:1040E00089BD82E189BD89B5982F917080FFFBCF92
:1040F0008091D8008F7D8093D8008091E1008F7EE1
:104100008093E1008091E2008F7E8093E2008091B5
:10411000E20081608093E20080918002882309F4AC
:1041200049C084E0809384020E94E21B8091E100F8
:1041300083FF29C08091E20083FF25C08091E100C8
:10414000877F8093E10082E0809384021092800256
:104150008091E1008E7F8093E1008091E2008E7F6C
:104160008093E2008091E20080618093E20042E06F
:1041700060E080E00E940D1F8091F00088608093D5
:10418000F0000E94D61BFF91EF91BF91AF919F91DC
:104190008F917F916F915F914F913F912F910F90F0
:1041A0000FBE0F901F90189519BC109284020E94A8
:1041B000D31B70CF8091E30087FD93E0909384023E
:1041C000B3CF1F920F920FB60F9211242F933F93EC
:1041D0004F935F936F937F938F939F93AF93BF930F
:1041E000CF93DF93EF93FF93D091E900DF7080913D
:1041F000EC00C82FC17080FDC0E81092E9008091EA
:10420000F000877F8093F00078940E94252110921F
:10421000E9008091F00088608093F000CD2BCF7092
:10422000C093E900FF91EF91DF91CF91BF91AF91E2
:104230009F918F917F916F915F914F913F912F91BE
:104240000F900FBE0F901F901895AAE2B0E0EBE21E
:10425000F1E20C94B82285E892E02091F100FC0193
:104260002193CF01F2E08D389F07B9F70E940C1C13
:104270008091E80083FF1EC18091850290918602A3
:104280009A3008F017C1E92FF0E0EA55FC4D0C9484
:104290009C22803899F0823809F00CC18091890203
:1042A0008F70873008F006C18093E9008091EB00A1
:1042B00085FB882780F91092E90006C08091810271
:1042C00090918202911182609091E800977F909383
:1042D000E8008093F1001092F1008091E8008E7761
:1042E000E5C0882309F4D3C0823009F0E3C080918F
:1042F00087028111D6C0809189028F702FEF280F1D
:10430000263008F0D7C08093E9002091EB0020FF11
:10431000C8C0933031F48091EB0080628093EB0051
:10432000C0C09091EB0090619093EB0021E030E0F1
:1043300001C0220F8A95EAF72093EA001092EA0062
:104340008091EB008860EACF8111B4C010918702A0
:104350001F778091E3008078812B8093E300809128
:10436000E800877F8093E8000E94411F8091E80069
:1043700080FFFCCF8091E30080688093E30082E0BF
:10438000111183E08093840295C08058823008F038
:1043900091C080918702909188028C3D23E0920722
:1043A000A1F583E08A838AE289834FB7F894DE011E
:1043B000139620E03EE051E2E32FF0E050935700E7
:1043C000E49120FF03C0E295EF703F5FEF708E2F06
:1043D00090E0EA30C0F0C7968D939D932F5F243113
:1043E00059F74FBF8091E800877F8093E8006AE229
:1043F00070E0CE0101960E94501E8091E8008B77FC
:104400008093E80057C0C096E7CF60918902709111
:104410008A02AE014F5F5F4F0E943D1DBC01892B98
:1044200009F448C09091E800977F9093E800898153
:104430009A810E94AE1EE1CF8038E1F58091E800BC
:10444000877F8093E800809180028093F10045CFC0
:10445000811130C090918702923060F58091E80020
:10446000877F8093E800909380020E94411F809193
:104470008002882311F084E005C08091E30087FD6D
:10448000FACF81E0809384020E94ED1B13C08091DB
:104490008702813079F481E0933009F080E08093E5
:1044A00082021092E9008091E800877F8093E80003
:1044B0000E94411F8091E80083FF0AC08091E800BC
:1044C000877F8093E8008091EB0080628093EB000F
:1044D000AA96E3E00C94D4220895CF9380918402AD
:1044E0008823A1F0C091E900CF709091EC00892F52
:1044F000817090FD80E8C82B1092E9008091E8005F
:1045000083FD0E942521CF70C093E900CF910895CB
:1045100097FB072E16F4009407D077FD09D00E9470
:10452000E02207FC05D03EF4909581959F4F0895B9
:10453000709561957F4F0895EE0FFF1F0590F491E0
:10454000E02D0994692796276927782787277827F8
:1045500008952F923F924F925F926F927F928F9227
:104560009F92AF92BF92CF92DF92EF92FF920F9302
:104570001F93CF93DF93CDB7DEB7CA1BDB0B0FB60C
:10458000F894DEBF0FBECDBF09942A8839884888C9
:104590005F846E847D848C849B84AA84B984C8845F
:1045A000DF80EE80FD800C811B81AA81B981CE0F56
:1045B000D11D0FB6F894DEBF0FBECDBFED0108953B
:1045C000AA1BBB1B51E107C0AA1FBB1FA617B70739
:1045D00010F0A61BB70B881F991F5A95A9F7809555
:1045E0009095BC01CD010895FB01DC0104C08D91C3
:1045F0000190801921F441505040C8F7881B990B55
:104600000895FB01DC0102C001900D924150504021
:10461000D8F70895F999FECF92BD81BDF89A9927F0
:1046200080B50895A8E1B0E042E050E00C944E233C
:10463000DC01A40FB51F4150504048F0CB01840F5E
:10464000951F2E910E94292341505040D0F7089584
:10465000262FF999FECF92BD81BDF89A019700B43B
:10466000021639F01FBA20BD0FB6F894FA9AF99ADB
:104670000FBE08950396272F0E9429230E94282306
:10468000252F0E942923242F0C9429230196272FBC
:104690000E9429230C942823DC01CB01FC01F99909
:1046A000FECF06C0F2BDE1BDF89A319600B40D927E
:1046B00041505040B8F70895F894FFCF8904890419
:1046C000D904D9043E055A05B804B8045F05C605E7
:1046D000D505D5056F147B14B114C314CE14D914A9
:1046E000DC14DC14DC1481148114E114E514ED14E1
:1046F000FA1407150A150D151A157F15F3158715E8
:10470000511555158B1559158F159B156515EC15FC
:1047100069159F156D15A315CB157115A715D21524
:104720007715AD15B5155D159315611597157B15A5
:10473000B115C115DB15EA154B158315FA151D19B1
:1047400023190C19171929192F1935194921712104
:104750005A2271215A22A421C5215A221C22282220
:104760001B02280850011E0A1401030201731BA832
:104770001BA11B9A1B01E200E900EA00B500B6008C
:10478000B700CD008301CC008A019201940121027F
:10479000230224022502260227022A02B300B400C3
:1047A0006F0070009F01CB019F02A002818283E213
:1047B00000E900EA00B500B600B700CD008301CCE7
:1047C000008A01920194012102230224022502267B
:1047D0000227022A02B300B4006F0070009F01CBD1
:1047E000019F02A00281828397C63435363233316D
:1047F000F7F6F5F493929190946640227BAA030D0C
:0A480000032F03B202CB02EB02000B
:00000001FF
