:100000000C947C010C9499010C9499010C94990125
:100010000C9499010C9499010C9499010C949901F8
:100020000C9499010C9499010C94FF1A0C94D31B15
:100030000C942F160C9499010C9499010C9499012D
:100040000C9499010C9499010C9499010C949901C8
:100050000C9499010C94B6160C9499010C94990186
:100060000C9499010C9499010C9499010C949901A8
:100070000C9499010C9499010C9499010C94990198
:100080000C9499010C9499010C9499010C94990188
:100090000C9499010C9499010C9499010C94990178
:1000A0000C9499010C9499010C94990129004A002F
:1000B0004B004E002F003000330034003600370074
:1000C0003800000035001E001F0020002100220023
:1000D0002300240025002600270000002B00140028
:1000E0001A000800150017001C0018000C00120070
:1000F00013000000390004001600070009000A0080
:100100000B000D000E000F0028000000E1001D0094
:100110001B0006001900050011001000E500520048
:100120004C000000E0002152E2002C005000510081
:100130004F002A002D002E003100000000000000BA
:1001400000000000000000000000000000000000AF
:100150000000000000003A003B003C003D003E0073
:100160003F0040004100420043000000000000004A
:10017000000000000000000000000000000000007F
:100180004600000000000000000000000000000029
:10019000000000000000000000000000000000005F
:1001A000000000000000000000000000000000004F
:1001B000000000000000000000000000000000003F
:1001C0000000000044004500000000000E03740021
:1001D00061006C006C003600360000000E03520017
:1001E00061007400610074006100000004030904F0
:1001F00009023B00020100A0FA090400000103010A
:1002000001000921110100012240000705810308B6
:10021000000109040100010300000009211101008F
:1002200001227B0007058203200001120100020069
:10023000000008EDFE0000000101020001050109B7
:1002400002A10185020901A100050919012908156A
:100250000025019508750181020501093009311554
:1002600081257F95027508810609381581257F95BE
:100270000175088106050C0A38021581257F950154
:1002800075088106C0C005010980A1018503190117
:100290002AB700150126B700950175108100C00529
:1002A0000C0901A101850419012AA002150126A04B
:1002B00002950175108100C005010906A10105071D
:1002C00019E029E7150025019508750181029501BE
:1002D000750881010507190029FF150026FF009503
:1002E0000675088100050819012905950575019114
:1002F00002950175039101C011241FBECFEFDAE012
:10030000DEBFCDBF11E0A0E0B1E0E0E1FDE302C05F
:1003100005900D92A839B107D9F722E0A8E9B1E01C
:1003200001C01D92A638B207E1F70E94D1100C94CB
:10033000471E0C9400008230B8F46630A8F44C30AC
:1003400098F450E09CE0699F400D511D1124FA0182
:1003500098E4899FE00DF11D1124EE0FFF1FE45575
:10036000FF4F85919491089581E090E008950E9457
:100370009B01089581E008950E94BA01089581E0EB
:1003800008950E94BA0108950E94C1010895089538
:100390000E94C7010895A6E0B0E0E1EDF1E00C9401
:1003A000A31D49835A839E8330919F0189819A813D
:1003B00031111AC03E81332399F0222389F00E9423
:1003C0005B07182F682F89819A810E9437076981FE
:1003D0007A81812F0E94420E2696E3E00C94BF1D85
:1003E0000E944907182FF3CF0E945B0769817A8129
:1003F000F1CFFC01262F408151816281738184817C
:1004000095810E94CB010895CF93DF93EC0161E0C9
:100410000E94F901BE010E94BC01DF91CF910895B5
:10042000CF93DF93EC0160E00E94F901BE010E94CE
:10043000C801DF91CF91089508950E940C060E9493
:100440001C022FEF84E39CE0215080409040E1F7B4
:1004500000C0000008950E941D020E94DA1608954F
:100460000E941D020E94EB1608950F931F93CF93D5
:10047000DF938C0161E00E94F901EC01B8010E9458
:10048000C401811106C080E0DF91CF911F910F91CF
:100490000895B801CE010E94CC148823A1F3B801BD
:1004A000CE010E946213882371F3B801CE010E942D
:1004B0003E14882341F3F8018581882361F0C3301D
:1004C000FCE7DF07E9F058F4C115ECE7DE07A9F017
:1004D000C130DC47B9F0C8010E94BF01D5CFCB3590
:1004E0008CE7D807A9F0CC35ECE7DE0771F0CA3508
:1004F000DC4789F70E94910BEECF0E942B02C3CFFD
:100500000E94990B0E943002BECF0E94870BE3CF5E
:100510000E94950BE0CF0E940B160E94B202089534
:100520000E94B6020E9410160895089581E0089571
:100530000895CF93DF93D82F0E949602C82F882367
:1005400019F08D2F0E9498028C2FDF91CF91089582
:100550000895CF93C82F0E9495028C2F0E94990274
:10056000CF91089580E00E94A90208950E941A1573
:100570000E94A9020895CF930E941A15C82F809156
:100580009A018C1779F0C0939A010E949B16609390
:100590009B0170939C0180939D0190939E018C2FF1
:1005A0000E94A902CF910895ADE0B0E0EAEDF2E03B
:1005B0000C94A41D488759876A877B878C879D8701
:1005C00091110E94BF0A1F8286E0FE013896DE016B
:1005D000119601900D928A95E1F78D8181110DC0E0
:1005E00029813A814B815C816D817E818F810E945E
:1005F000F2092D96E2E00C94C01DCE0101960E94F6
:1006000004028111EDCFF5CFFC012481213021F4CA
:10061000808191810E948D070895662329F00E94B0
:1006200055110E94281208950E94AF11FACFCF935E
:10063000C82F8823B9F08CEF8C0F813AA8F46C2F67
:1006400080910001909101010E949C15882329F05E
:100650008C2F0E947F0A0E94F80A8C2F0E94770A32
:100660000E94F80ACF91089580E28C0F883048F4F8
:10067000C77081E001C0880FCA95EAF70E94A20AFC
:10068000EFCFEBE5EC0FE33040F4F0E0E75BFE4F3B
:10069000808190E00E944015E5CFE8E5EC0FEB315A
:1006A00050F4F0E0EE0FFF1FED5EFE4F8081918170
:1006B0000E946515D7CF83E38C0F833198F661E0F4
:1006C0008C2F0E940D03CECF882381F19CEF980FD1
:1006D000913A28F40E947F0A0E94F80A089590E255
:1006E000980F983050F4877091E001C0990F8A9567
:1006F000EAF7892F0E94A80AEFCF9BE5980F933065
:1007000028F490E080E00E944015089598E5980F45
:100710009B3128F490E080E00E946515089593E3F2
:10072000980F933118F460E00E940D0308951F9311
:10073000CF93DF93182FEB010E941703209739F412
:10074000812F0E946403DF91CF911F9108958FE95B
:100750009FE00197F1F700C000002197EFCF70E014
:1007600060E0893311F460E570E00E94970308951A
:10077000882321F00E94A20A0E94F80A0895882383
:1007800021F00E94A80A0E94F80A0895B0E0A0E0B3
:10079000ECECF3E00C949D1D6C01D62FC72FFC01EF
:1007A0001581068102950F700E94980AE82E882311
:1007B000E9F0E12E1123D1F08C2F807F803451F0AD
:1007C00080E28D0F8830F8F0011104C08C2F807EFC
:1007D0008032C9F080915C0282FF15C082E00E94E5
:1007E0005B0B0E94980A91E0E82EE926BC2EB29499
:1007F0009FE0B922FBE0FB15B8F1EB2DF0E0E75BE1
:10080000F14E0C948E1DE12CF1CF0C2F0F70C07F98
:1008100011F00295007F112399F0002359F080E236
:100820008D0F883010F0D11107C0802F0E94A20ACE
:100830000E94F80A8D2F5AC0802F0E94B20AF8CF6A
:100840008D2F0E946403002379F080E28D0F8830A1
:1008500010F0D11104C0802F0E94A80A03C0802F7D
:100860000E94B80A0E94F80AEB2DE850FF0B34975B
:1008700020F40E941A150E94A902EE2089F00E941D
:10088000940A80FD0DC0F60115820E948E0A0E9416
:100890009506C6010E94D3050E948E0A0E94A506F5
:1008A000CDB7DEB7E9E00C94B91D2C2F2F70F22ED6
:1008B000C07FC03219F0F29480EFF822DD2341F0BE
:1008C000D130D1F1112309F444C00023F1F0B2CFAB
:1008D00080915C0282FD15C0112359F0FF2029F0A0
:1008E0008F2D0E94A20A0E94F80A80E00E9417033E
:1008F000BBCF80E00E946403FF2009F4B5CF8F2DA9
:10090000ABCF112369F0011104C08F2D0E94B803F1
:10091000ABCF013009F0A8CF8F2D0E94D60AA4CF0B
:100920000111A2CF8F2D0E94BF038F2D0E94E20ADA
:100930008F2D0E94C60A98CF112321F0063008F0AF
:1009400093CFE3CF053008F08FCF8F2D0E94BF03E8
:100950008BCF0023D1F3D93349F43FEF87EE93E0F7
:10096000315080409040E1F700C000008D2F0E9480
:1009700064037ACF8C2F86958695837069F08130D9
:1009800009F072CF8D2F9C2F9370111102C080E05F
:1009900090E00E94651568CF8D2F9C2F93701111E8
:1009A00002C080E090E00E9440155ECF612F8D2F45
:1009B0000E940D0359CF8C2F8370A1F5111154CFD4
:1009C0004D2F429546954770440F440F2D2F2F70A1
:1009D00030E0042E02C0220F331F0A94E2F790E0A9
:1009E00080E0D4FF09C08FE090E002C0880F991F1B
:1009F0004A95E2F780959095C695C695C370822B6F
:100A0000932BC23049F058F4C13019F00E946506AA
:100A10002BCF0E945C0628CF0E946E0625CF0E9435
:100A2000590622CF8695112311F08C2F81708823CF
:100A300009F41ACF4D2F429546954770440F440F45
:100A40002D2F2F7030E0042E02C0220F331F0A9486
:100A5000E2F790E080E0D4FF09C08FE090E002C0B0
:100A6000880F991F4A95E2F780959095C695C6958F
:100A7000C370822B932BC23049F058F4C13019F067
:100A80000E94D006F1CE0E94C706EECE0E94D90683
:100A9000EBCE0E947D06E8CECF70112329F08C2F7B
:100AA0000E9495068D2F32CF8D2F0E94BF038C2F71
:100AB0000E94A506D9CED23F41F160F4D03FB9F0F3
:100AC000D13F81F0112309F446C00111B3CE8C2F20
:100AD0008F711FC0D33F01F1D43FA1F780915C0219
:100AE00082FD24C08C2F8F71112311F312C01123AA
:100AF00041F0053008F0B8CE8C2F8F710E94B706F8
:100B0000B3CE063008F0B0CEF7CF8C2F8F71111115
:100B1000CFCF0E949506A8CE112329F08C2F8F717C
:100B20000E948906A1CE0E9484069ECE112349F020
:100B3000CF718C2F0E94950663E08C2F0E943D0B95
:100B400093CE81E00E945B0B023008F48DCE82E0F0
:100B50000E945B0B89CE002359F0D93309F006CFF0
:100B6000EFEFF7EE23E0E150F0402040E1F7FCCE5C
:100B70008C2F8F719DCF0F931F93CF93DF93EC0139
:100B8000688179818D810E9498078C010E94E2061C
:100B90000E945806B801CE010E94C603DF91CF9192
:100BA0001F910F910895CF93DF93EC018C818823DF
:100BB00099F0CE010E943502811111C00E94980A5D
:100BC000882351F08D81882339F080915C0282FF67
:100BD00003C082E00E945B0BDF91CF910895CE01AC
:100BE0000E94BB05CE010E941002F6CF90E080E08B
:100BF0000E94401590E080E00E9465150E94BF0AA7
:100C00000E94F80A0E9444120E94281208950E942D
:100C1000870A0E94F60508950E94AF0A0E940706FF
:100C2000089592959F70963091F058F4925F9F705E
:100C3000923058F4803F19F030F4883E30F481E06F
:100C400008959A5FF4CF843FD1F380E00895883E01
:100C5000B0F3813FD1F7F3CFFC012481222339F097
:100C6000808191810E948D070E941106089580E085
:100C70000895A6E0B0E0EFE3F6E00C94A41D2696FC
:100C8000E2E00C94C01DA7E0B0E0E9E4F6E00C94CB
:100C9000A41D2796E2E00C94C01D08950E944D0605
:100CA00008950E944E069093C7018093C60108954F
:100CB00008950E94510608952091C6013091C70100
:100CC000822B932B0E94510608952091C6013091EA
:100CD000C701822393230E94510608952091C601E3
:100CE0003091C701822793270E94510608950E94E0
:100CF0004D0608950E94770608950E947A06909303
:100D0000C5018093C401089590E080E00E947D06B3
:100D1000089521E030E0A90102C0440F551F8A95D3
:100D2000E2F7CA010E947D06089521E030E002C08A
:100D3000220F331F8A95E2F78091C4019091C5017B
:100D4000822B932B0E947D06089521E030E002C0A3
:100D5000220F331F8A95E2F7209530958091C401C8
:100D60009091C501822393230E947D06089521E07E
:100D700030E002C0220F331F8A95E2F78091C40150
:100D80009091C501822793270E947D0608952091A6
:100D9000C4013091C501822B932B0E947D060895DA
:100DA0002091C4013091C501822393230E947D06C6
:100DB00008952091C4013091C501822793270E9494
:100DC0007D0608950895262F277091E001C0990FA0
:100DD0002A95EAF723E0769567952A95E1F7660F5D
:100DE000771F660F771FFA01E60FF71F50E040E00C
:100DF000682F70E08191DF0111979B01042E02C0E2
:100E0000369527950A94E2F7217021952827292302
:100E100028272C934F5F5F4F4430510559F70895B1
:100E2000A82FA77023E0969587952A95E1F7880F5C
:100E3000991F880F991FFB01E80FF91F50E040E050
:100E400080E0219130E00A2E02C0369527950A9461
:100E5000E2F721703327042E01C0220F0A94EAF72B
:100E6000822B4F5F5F4F4430510559F70895262F6D
:100E7000963070F48C3060F4682F70E08CE0989FAE
:100E8000600D711D112440EA51E0822F0E94E3069B
:100E90000895292F963068F48C3058F490E060EA79
:100EA00071E03CE0239F800D911D11240E941007EA
:100EB000089580E00895B0E0A0E0E1E6F7E00C944A
:100EC0009D1D7C010091C4011091C5018091C60156
:100ED0009091C701082B192BCFE0D0E0CC24C3940C
:100EE000D12CBC2EC6010C2E02C0880F991F0A946B
:100EF000E2F780239123892B49F4219790F7B12CB5
:100F00008B2DCDB7DEB7E9E00C94B91DB7018C2F5E
:100F10000E944E0E019789F3F3CFCF93DF93EC013C
:100F20000E945B07BE010E944E0EDF91CF91089593
:100F30001F93CF93DF93EB0190919F01992339F099
:100F4000CB010E948D07DF91CF911F9108958823D7
:100F500069F0CB010E945B07182F682FCE010E9419
:100F60003707BE01812F0E944E0EEDCFCB010E94AC
:100F70004907182FF6CF1F93CF93DF93C091C80175
:100F800017E08091C9018C1304C0DF91CF911F91AC
:100F90000895D0E01C9FF0011D9FF00D1124E65331
:100FA000FE4F208131814281538164817581868128
:100FB0000E9443062196C770E4CF2091020230912F
:100FC0000302409104025091050260910602709163
:100FD0000702809108020E9443060895CF93DF9391
:100FE00080910802807F09F04DC08091070288231C
:100FF00009F448C0E091C8015091C901C0910302B1
:10100000D0910202609104027091050247E05E17E0
:10101000C9F18E2F90E0E49FF0011124E653FE4FBA
:101020002481222391F1489FF001499FF00D112462
:10103000DF01A653BE4F11962C9111972C1325C09A
:101040002C912D1322C015962C91159721111DC09E
:1010500012962D913C91261B370B283C3105A8F4A4
:10106000809108028F70806180930802E053FE4FE8
:1010700080818F708061808382E092E00E94D3053E
:101080000E94BB07DF91CF910895FC013196E77074
:10109000BECF482F2091C8019091C90157E0291374
:1010A00002C080E0089530E0529FF001539FF00DA0
:1010B0001124E653FE4F8181681306C080814813D6
:1010C00003C085818111EECF2F5F3F4F2770E7CF9F
:1010D000A4E1B0E0EEE6F8E00C949A1D8C0186E005
:1010E000F801DE011F9601900D928A95E1F7F80153
:1010F0008481E58092E0A92E92E0B92E90910602BB
:1011000091111FC08823D1F0EE20A9F0C8010E94E0
:101110002C06F82E882379F087E0F801D50101909C
:101120000D928A95E1F7C5010E9404030E94EE0723
:101130000E94DD075FC0C8010E94D305FF24F3941D
:1011400059C0C080D18082809380F09007022091A6
:10115000040230910502A401421B530BFF2009F445
:10116000F9C0483C510508F0A7C0882309F442C0E3
:101170009091030280910802282F207F09F05CC023
:101180009D1116C090910202C91212C0E1104EC00A
:101190008F708061809308020E94DD0782E092E0F8
:1011A0000E94D30580910802F8018683F12C22C0A9
:1011B000E1103CC06D2D8C2D0E9449086D2D8C2DA9
:1011C0000E944908E82E8111F1CFCF86D88A8F85F9
:1011D00098890E948D07292F22952F70243078F44A
:1011E0009F702230A8F09923B9F0F8019681907F82
:1011F00099F4FE2C8F2D6496ECE00C94B61D2A5FBA
:101200002F70223068F0C8010E94D305EF2CF1CF77
:10121000992311F0882369F3805E883050F3F3CF6F
:10122000803F38F3815F833070F7E3CF809108020D
:10123000816080930802BACF9D1113C09091020281
:10124000C9120FC0E1100DC08683C8010E94D305EA
:1012500087E0F801A2E0B2E001900D928A95E1F7F3
:1012600067CFC8010E942C06882309F464CFEE20C2
:1012700009F461CF80910802803288F02091020247
:1012800030910302398728879B868A8690910602CF
:101290009C871D868E87CE0108960E94D30587E025
:1012A000F801A2E0B2E001900D928A95E1F70E9468
:1012B000EE070E94DD0742CF90910802292F207F80
:1012C000A1F4682D9A8A898AA6017A899E2D0E94A6
:1012D000390682E092E00E94D30587E0F501119281
:1012E0008A95E9F70E94DD0761CF882309F482CF50
:1012F000809103028D1110C080910202C8120CC0AF
:10130000E1100AC09683C8010E94D30587E0F50169
:1013100011928A95E9F76ECFC8010E942C068823A6
:1013200009F409CFEE2009F406CF8091080280323B
:1013300008F4B5CF20910202309103023A83298349
:101340009C828B82909106029D831E828F83CE01A8
:101350000196A3CF483C5105B8F5882309F4EECE99
:10136000FE2CEE2009F4E7CE809103028D111EC001
:1013700080910202C8121AC08091080280FD0DC03F
:10138000982F907F51F08683903F09F45ECF982F7D
:10139000907F905F8F70892B57CF87E0F801A2E094
:1013A000B2E001900D928A95E1F724CFC8010E9426
:1013B0002C06811174CF809108028160809308020D
:1013C000C8010E94D30516CF682D9A8A898AA60182
:1013D0007A899E2D0E94390687E0F50111928A953F
:1013E000E9F7A6CEAEE0B0E0E8EFF9E00C94A31D7B
:1013F000288739874A875B876C877D878E87CE01F0
:1014000008960E9468088823B1F06C85662341F035
:10141000288539854A855B857D858E850E944306B2
:1014200017E08091C8019091C90189133DC02E96A3
:10143000E3E00C94BF1D87E0FE013896DE011196B3
:1014400001900D928A95E1F78C85882349F32091CC
:10145000C90130E0C9010196877099274091C80100
:101460004817190699F097E0929FD001939FB00D0D
:101470001124A653BE4FFE01319601900D929A950C
:10148000E1F78093C9010E94BB07CACF0E940C06F6
:101490001092C9011092C80187E0E2E0F2E0DF019A
:1014A0001D928A95E9F7BCCF819FC0011124865314
:1014B0009E4F0E946808882309F4B9CFE091C801C3
:1014C0001E9FF0011124E653FE4F2081318142819D
:1014D00053816481758186810E9443068091C80191
:1014E00090E00196877099278093C8019ACF682F62
:1014F00080910001909101010E94D2150895682FFA
:1015000080910001909101010E94D515089580916C
:101510000001909101010E94D81508958091110257
:101520008695869586950895809111028770089515
:1015300090911102977081E009F480E00895809104
:101540001D02089590911D02892B80931D0208951C
:10155000809590911D02982390931D0208951092FA
:101560001D02089590911C02892B80931C020895FE
:10157000809590911C02982390931C0208951092DC
:101580001C02089508950E94C20A089590911202C3
:10159000292F282331F080958923809312020E94FD
:1015A000C30A089508950E94D20A089590911302E3
:1015B000292F2823281729F0982B909313020E9493
:1015C000D30A089590911302292F282331F0809592
:1015D0008923809313020E94D30A089580911302F5
:1015E000882329F01092130280E00E94D30A089504
:1015F000CF93DF93E0910001F091010180911D02F2
:101600008083E0910001F0910101808190911C02A2
:10161000892B808390911302992381F0E09100013E
:10162000F09101018081892B80838091000190914C
:1016300001010E948A1581110E94EE0AC0910001E9
:10164000D091010148E050E069E072E0CE010E94D3
:10165000DF1D892B59F088E0FE01A9E0B2E001907E
:101660000D928A95E1F7CE010E942715DF91CF9167
:10167000089508950E94390B089590915C0292FF9D
:1016800011C098E0899F90011124622B6093110290
:101690000E949506809111028695869586950E94F6
:1016A0003A0B08950E94950608951092110280E069
:1016B0000E943A0B0895909111028095892380939E
:1016C0001102282F277069F4891759F090915C0254
:1016D00092FF07C08695869586950E94A5060E9472
:1016E000550B089590915C0292FB222720F9281750
:1016F00069F080FB92F990935C0280915B0290917B
:101700005C020E94BA0B82E00E945B0B08958091FC
:101710005C0282FB882780F991E089270E94720B86
:10172000089581E00E94720B089580E00E94720B80
:1017300008956FEF7FEF90E080E00E94311E0895E2
:1017400090E080E00E94FD1D21E0863E9E4F09F062
:1017500020E0822F089582E090E00E94F51D089518
:1017600083E090E00E94F51D089584E090E00E94DF
:10177000FD1D0895BC0184E090E00E94311E089593
:10178000AB01BC018FE090E00E94251E0895AB01E3
:10179000BC0183E190E00E94251E089560E070E0A6
:1017A000CB010E94C70B089560E070E0CB010E945E
:1017B000C00B0E94CE0B0895A8E0B0E0E2EEFBE083
:1017C0000C94A41D66EE7EEF90E080E00E94311E36
:1017D00060E082E090E00E94131E60E083E090E011
:1017E0000E94131E1092C7011092C60160E074E1BE
:1017F00084E090E00E94311E60E086E090E00E946C
:10180000131E6FEF87E090E00E94131E40E050E04F
:10181000BA0188E090E00E94251E60E084E290E03A
:101820000E94131E60E087E190E00E94131E60E0BA
:101830008CE090E00E94131E60E08DE090E00E943A
:10184000131E19821A821B821C821D821E821F8215
:10185000188648E050E068E170E0CE0101960E94F1
:10186000031E40E050E0BA0180E290E00E94251E95
:101870000E94D40B2896E2E00C94C01D0E94DC0B61
:101880000895682F8EE090E00E94131E0895A6E050
:10189000B0E0EDE4FCE00C94A21D0E948F168C01D8
:1018A00080911E0290911F028017910781F019828A
:1018B0001A820E948F16682F49815A81792F80E001
:1018C00090E00E94D40210931F0200931E022696FD
:1018D000E4E00C94BE1D0E949B166093300270934E
:1018E0003102809332029093330260932C02709302
:1018F0002D0280932E0290932F020895089508954B
:101900000E947F0C089508950E94830C089581E041
:10191000089588E39FE00E9410150E947E0C0E94AB
:10192000800C08950E94870C08950E94920C0895DF
:10193000089508950E94980C0E94990C08950E94A1
:10194000570F0E94A80208950E9486160E94321026
:101950000E949F0C0E94840C0895A6E0B0E0E3EB87
:10196000FCE00C94981D0E94870C81110AC00E9413
:10197000470C0E9466120E94BB022696EEE00C9471
:10198000B41D0E94481020E2822E22E0922E6401B3
:1019900010E0F601E190F1906F01812F0E947D0F20
:1019A0001F5F163009F44BC0E816F90691F38091D9
:1019B000340281FD0E94860F0E94950C782E10E063
:1019C00066246394812F0E947D0F7C01F401A19015
:1019D000B1904F018A159B0561F1A826BF2400E054
:1019E000CC24C394D12CC5018C219D21892BC1F01D
:1019F0007720B1F009831A830E948F169C838B8312
:101A00006D8221E0C7018C219D21892B09F420E002
:101A100049815A816B817C818D81922F0E94D402F1
:101A20000F5FCC0CDD1C0C30F1F6F4013297F18223
:101A3000E0821F5F163031F60E946B0C9ACFE816D9
:101A4000F90609F0B4CF93CF1F93CF93DF930E9491
:101A5000530EEC01C11580E5D807F0F5C11580E4FF
:101A6000D80708F09CC0C03ED10520F5CD3CD1057B
:101A700008F082C0C83AD10578F4C53AD10508F01B
:101A800073C0C130D10519F1209709F1C430D105D7
:101A9000F0F4D0E0C0E01BC0C33CD105D0F7C85A79
:101AA000D0E0CC0FDD1FC45BDE4F0990D881C02D84
:101AB000D4640DC0C11580E2D80708F0D1C0C115AB
:101AC00081E0D80708F05AC0C83ED10510F7CE0112
:101AD000DF91CF911F910895C03682E5D80718F5A0
:101AE000C03482E5D80708F06BC0C03282E5D80761
:101AF00008F05FC0C11582E5D80708F497C02C2F05
:101B00002695269580E2289F900111248C2F8370C2
:101B1000C1E0D0E002C0CC0FDD1F8A95E2F7C22BF6
:101B2000D32BDD68D4CFC03A82E5D80760F4C03843
:101B300082E5D80708F459C0CF71D0E0DC2FCC275C
:101B4000C46FD06AC4CFC03C82E5D80708F462C035
:101B5000C03E82E5D80708F09CCFDC2FCC27CC27ED
:101B6000DF71C06FD06AB3CFC55AD0E0CE57DE4F19
:101B7000C881D0E0D064ABCFD065A9CF8D2F0E94B3
:101B8000F50E182FCE0199270E94530EC12FD0E0D9
:101B9000DC2FCC27CC27DF71C82BD92B98CFCE01D7
:101BA00099270E94530ECC27DF70C82BD92BD06AFF
:101BB0008ECFCF71D0E0DC2FCC27C16FD06A87CF1A
:101BC0002C2F26952695277080E2289F90011124BE
:101BD0008C2F8370C1E0D0E002C0CC0FDD1F8A954E
:101BE000E2F7C22BD32BDC6872CF2C2F26952695DB
:101BF000277080E2289F900111248C2F8370C1E010
:101C0000D0E002C0CC0FDD1F8A95E2F7C22BD32BA8
:101C1000DA685DCF8C2F8F710E94F50EC82FD0E04F
:101C2000DC2FCC27CC27DF71D06251CF8C2F8F7166
:101C30000E94F50E55E0D695C7955A95E1F7CF70FD
:101C4000D0E0DC2FCC27282F30E084FF05C044E013
:101C5000220F331F4A95E1F7C22BD32BD06937CF20
:101C60008D2F8F710E94F50E182FCE0199270E949B
:101C7000530EC12FD0E0DC2FCC27CC27DF71C82B2F
:101C8000D92BD2CF462F763030F46C3020F4672F2A
:101C90000E94B701089590E080E008950E94420EEE
:101CA0000E94240D089582389105B9F1B0F4813372
:101CB000910509F47DC048F48932910509F46DC09D
:101CC0008A32910509F47BC008958533910509F4A2
:101CD0005FC08933910509F10895833E9105D9F1DB
:101CE00038F4803E910529F1823E910579F10895FD
:101CF000863E9105D9F1873E910509F43EC0843EA8
:101D0000910541F520915C0221FF24C080915B0286
:101D100084FD19C087EE90E0089520915B02237046
:101D200009F05AC020915C0223FF14C089E290E0C0
:101D3000089520915B0220FD38C030915C0230FF95
:101D400009C024FF43C090E080E0089520915B0229
:101D500022FDF7CF089520915B0222FD3AC0309119
:101D60005C0230FD39C024FFF5CFEDCF20915B023E
:101D700023FFF0CF24FDE7CFCDCF20915B0223FDE1
:101D80002EC030915C0231FFEECF84EE90E00895DA
:101D900020915B0225FFDECFC9CF20915B0225FD9C
:101DA00021C020915C0223FFD5CF89E390E0D2CF00
:101DB00020915B0226FFCECF8AE290E00895209129
:101DC0005B0226FFC7CF81E390E0089583EE90E0A9
:101DD000089582EE90E0089580EE90E0089586EEFA
:101DE00090E0089585E390E0089590915B0292FF62
:101DF00006C0282F28712830F9F4877F846093FF6C
:101E000006C0282F28712831F1F4877E8461209143
:101E10005C0220FF06C0382F38713830D9F4877F34
:101E2000816021FF06C0282F28712831D1F4877ED8
:101E3000816194FD877E0895282F24712430F9F65E
:101E40008B7F8860DCCF282F2471243101F78B7EB3
:101E50008861DDCF382F3171313019F78E7F88607E
:101E6000E0CF282F2171213121F78E7E8861E1CFCB
:101E700080E008950E94990B08950E9448102FEF6A
:101E800086E791E0215080409040E1F700C00000DB
:101E90000E94481080E00E947D0F80FF04C00E94D5
:101EA0003A0F0E94DA1608950E943D0F08950E948D
:101EB000A00B811102C00E943E0C0E94AB0B8093CC
:101EC00034020E94B50B90935C0280935B020E94E7
:101ED000540F0E94B00B90E00E9459068091C401FB
:101EE0009091C5010E947A06089508950E94750F89
:101EF000089508950E94790F0895E82FF0E0EE0FFD
:101F0000FF1FE759FD4F808191810895089580EA70
:101F10008A95F1F7089500C008950E94870F0895EB
:101F2000F894E82FE295EF70F0E031A1282F2F70A0
:101F300081E090E001C0880F2A95EAF7982F9095EC
:101F4000932391A392A1892B82A378940895CF9390
:101F5000DF93C1E9D1E089918F3F11F00E94900F8A
:101F600081E0C739D807B9F7C5E8D1E089918F3F3B
:101F700011F00E94900F81E0C139D807B9F7DF91C5
:101F8000CF910895AF92BF92DF92EF92FF920F939D
:101F90001F93CF93DF938C01D62EC62FD0E0CE01B6
:101FA0008F569E4F7C01FC0120812F3F09F44DC0CC
:101FB000F894E22FE295EF70F0E031A12F7081E00C
:101FC00090E001C0880F2A95EAF7932F982B91A3F0
:101FD00092A18095892382A378940E948B0FE5E8D3
:101FE000F1E041E951E021E030E0B12CA12C619118
:101FF0006F3FA9F1A62FA295AF70B0E090968C919B
:1020000090E06F7002C0959587956A95E2F780FD24
:1020100026C0C901A82AB92A220F331F4E175F070D
:1020200031F7F70180818F3F11F00E94900F61E03E
:10203000A114B10409F460E08D2D0E948D0FCC0F26
:10204000DD1FC00FD11FB982A882DF91CF911F91F0
:102050000F91FF90EF90DF90BF90AF90089590E0C8
:1020600080E0D8CF0E94A70F8CE0E9E6F2E0DF0124
:10207000982F1D929A95E9F7EDE5F2E0DF011D92A8
:102080008A95E9F786E00E9483100E94760F0895F2
:10209000ACE0B0E0EEE4F0E10C94A11D8E010F5F26
:1020A0001F4F8CE0F80111928A95E9F7F12C6F2D02
:1020B000C8010E94C20FF394F6E0FF12F8CF4CE083
:1020C00050E0B8018DE592E00E94DF1D21E000970D
:1020D00009F420E0892B41F08CE0F801ADE5B2E095
:1020E00001900D928A95E1F746E069E672E08DE590
:1020F00092E00E948410182F0E947A0F812F2C9654
:10210000E5E00C94BD1D0895CF92DF92EF92FF920F
:102110001F93CF93DF936C017B01C42F222349F0DF
:1021200081E0809337020E948F169093360280934D
:1021300035021091370211110AC010E0812FDF9192
:10214000CF911F91FF90EF90DF90CF9008958091F5
:102150003502909136020E94A716059770F3D0E0E1
:10216000CC0FDD1FAE01B601C7010E94DF1D892B18
:1021700041F0AE01B601C7010E94EC1D109237027A
:10218000DDCF10E0FBCF0E9450180E94A40C0E94EB
:102190005D1808950E9462180E94AD0C0E947C1880
:1021A00008950E9428160E9436180E94890C0E94E9
:1021B000C3100E94CA100E949A0CFBCF80913E026D
:1021C00080FF0DC06091070170E0660F771F6038D7
:1021D000710570F56115710569F1862F089581FF0C
:1021E00007C06091070184E0689FB0011124EFCF20
:1021F0006091070182FD0AC080913D028823A9F009
:102200002091060160910701821710F088E0ECCF61
:10221000869FC001112433E0880F991F3A95E1F79A
:10222000622F70E00E947A1DD2CF68E070E0D5CFB7
:102230008FE7089581E0089580913E0280FF0CC0F1
:102240006091030170E075956795759567956115C7
:10225000710549F1862F089581FF06C06091030141
:1022600070E075956795F3CF6091030182FD0BC017
:1022700090913C029923A1F06091020180910301A9
:10228000961738F0682F70E06038710500F38FE71B
:102290000895899FC001112470E00E947A1DF4CF37
:1022A00061E070E0D7CF81E008958D3C31F40E9469
:1022B000DE1081958093420208958E3C19F40E94AD
:1022C000DE10F8CF8F3C31F40E94DE1081958093B0
:1022D00041020895803D19F40E94DE10F8CF893D37
:1022E00029F40E941C118093430208958A3D21F431
:1022F0000E941C118195F7CF8B3D31F40E941C1177
:1023000081958093440208958C3D19F40E941C111C
:10231000F8CF9FE2980F983070F4815D990B21E01F
:1023200030E001C0220F8A95EAF780914002822BAB
:102330008093400208958D3D31F480913E0281608A
:1023400080933E0208958E3D21F480913E0282608A
:10235000F7CF8F3DB9F780913E028460F1CF409175
:1023600041028D3C59F48091420287FF0DC01092CA
:10237000420241110BC010923D0208C08E3C81F414
:102380008091420218169CF3442381F0809143020D
:1023900090914402892B09F05AC010923C02089592
:1023A0008F3C49F447FFF0CF1092410280914202E6
:1023B0008111ECCFE0CF803D19F41416ACF3E4CFDB
:1023C00090914302893D29F41916F4F610924302C4
:1023D000DBCF8A3D19F497FFD7CFF8CF9091440215
:1023E0008B3D29F497FFD0CF10924402CDCF8C3D86
:1023F00019F41916CCF3C8CF9FE2980F983090F4D7
:10240000815D990B21E030E0B90102C0660F771FB2
:102410008A95E2F7CB0180959091400289238093C1
:102420004002B2CF8D3D31F480913E028E7F809389
:102430003E02AACF8E3D21F480913E028D7FF7CFE0
:102440008F3D09F0A1CF80913E028B7FF0CF0895A0
:102450000E948F169C019091410280914202982B1C
:1024600021F030933B0220933A02909143028091F5
:102470004402982B21F030933902209338028FE3E5
:1024800092E00E943215089586E0EFE3F2E0DF016A
:102490001D928A95E9F710923D0210923C0210922B
:1024A0003E020895FC01828181110EC08381811159
:1024B0000BC08481811108C091E08581811101C028
:1024C00090E0892F8170089581E0FCCFA6E0B0E014
:1024D000ECE6F2E10C94A31D86E0EFE3F2E0DE010E
:1024E000119601900D928A95E1F710924102109297
:1024F000420210924302109244028B819C81892BEC
:1025000089F080913A0290913B020E94A716AC019B
:1025100090913D029923C9F1809108018417150615
:1025200008F440C08D819E81892B91F08091380202
:10253000909139020E94A716AC0190913C02992318
:1025400009F471C0809104018417150608F479C05C
:10255000BE016F5F7F4F8FE392E00E94DF15811114
:1025600005C08FE392E00E94521281110E9428124E
:1025700086E0FE013196AFE3B2E001900D928A95BC
:10258000E1F72696E3E00C94BF1D209109018AE053
:10259000289F900111242417350720F69F5F909300
:1025A0003D0202C09F3FD1F71B81112359F00E94C9
:1025B000DE109FEF11160CF491E0899F802D1124FD
:1025C000809341021C81112359F00E94DE109FEF7D
:1025D00011160CF491E0899F802D11248093420202
:1025E00030914102332309F49DCF209142022223EE
:1025F00009F498CF45EB3403C0011124992359F015
:102600009093410245EB240390011124332339F0C8
:102610003093420287CF81E080934102F3CF81E083
:10262000809342027FCF209105018AE0289F90018C
:1026300011242417350708F08BCF9F5F90933C023D
:1026400002C09F3FD1F71D81112359F00E941C1138
:102650009FEF11160CF491E0899F802D1124809337
:1026600043021E81112359F00E941C119FEF111685
:102670000CF491E0899F802D1124809344023091C5
:102680004302332309F464CF20914402222309F446
:102690005FCF45EB3403C0011124992359F0909387
:1026A000430245EB240390011124332339F0309386
:1026B00044024ECF81E080934302F3CF81E08093C8
:1026C000440246CFCF93DF93EC01FB018581882341
:1026D00009F4D2C09E0130572332310508F0B2C050
:1026E0000E94B50B90935C0280935B02FE01E15067
:1026F000F047E232F10520F4EB5AF14E0C948E1DB6
:1027000080915B02816080935B0293C080915C0248
:10271000886080935C028DC080915B028260F3CF01
:1027200080915B028460EFCF80915B028860EBCF89
:1027300080915C028160EDCF80915C028260E9CF84
:1027400080915B028061DFCF80915B028062DBCF92
:1027500080915B028064D7CF0E940C0680915B025F
:102760008068D1CF80915B028C60CDCF80915C027C
:102770008360CFCF80915B028E7FC5CF80915C025A
:10278000877FC7CF80915B028D7FBDCF80915B0239
:102790008B7FB9CF80915B02877FB5CF80915C0240
:1027A0008E7FB7CF80915C028D7FB3CF80915B022B
:1027B0008F7EA9CF80915B028F7DA5CF80915B0238
:1027C0008F7BA1CF0E940C0680915B028F779BCFFD
:1027D00080915B02837F97CF80915C028C7F99CF41
:1027E00080915B0282FB992790F921E0922790FB70
:1027F00082F990FB83F987CF80915C02982F9095A6
:1028000091708E7F892B90FB81F983CF90915B0231
:10281000892F8F7B96FF806476CF0E940C06909163
:102820005B02892F97FB87F980586DCF81E00E946A
:10283000410C80915B0290915C020E94BA0B0E9455
:102840000C0680E0DF91CF91089580E0F0CF909169
:102850005B02892F8F7E94FF806155CF90915B0240
:10286000892F8E7F90FF81604ECF90915C02892FDF
:10287000877F93FF88604DCF81E0E4CFCF93DF93D4
:10288000EB0186319C4711F50E949F0A9D81992397
:1028900099F08A7A91E009F490E0909345028111D1
:1028A00009C089E20E94770A0E94F80A80E0DF915D
:1028B000CF91089585E3F6CF80914502811104C040
:1028C00089E20E947F0AF0CF85E3FBCF81E0EFCF62
:1028D0000F931F93CF93DF93C42FD22FFC018581D9
:1028E0008823C9F0409348020E948F1690934702B4
:1028F0008093460280E28C0F883040F4C77081E0FC
:1029000001C0880FCA95EAF70E94B803DF91CF9102
:102910001F910F91089510914802141332C08091B5
:102920004602909147020E94A716883C910548F5FF
:10293000C0E2CD0F1D17B9F080E2810F883040F45E
:10294000177081E001C0880F1A95EAF70E94BF0353
:10295000C83048F481E09D2F977001C0880F9A9588
:10296000EAF70E94B803802F0E94AF03C83070F6C8
:10297000D77081E001C0880FDA95EAF70E94BF03A3
:10298000C5CF80E28C0F883008F6C77081E001C0A7
:10299000880FCA95EAF7F2CF0F93DB0188519C4765
:1029A00087309105A0F5FC01E958F14E0C948E1D7D
:1029B00006E221EE41EE6AE17CE7CD010E94681457
:1029C00080E00F91089507E225EE45EE6BE17CE78C
:1029D000F4CF06E221EE40EE68E17CE7EECF07E2BD
:1029E00025EE44EE69E17CE7E8CF06E221EE42EE17
:1029F0006CE17CE7E2CF07E225EE46EE6DE17CE795
:102A0000DCCF08E221E045EE6EE17CE7D6CF1596FB
:102A10008C91882319F010924802D3CF81E0D1CF56
:102A20009093990180939801089590934E0280931A
:102A30004D020895E0914D02F0914E02309729F039
:102A40000190F081E02D0995089580E00895E091CE
:102A50004D02F0914E02309721F00280F381E02D7B
:102A600009950895E0914D02F0914E02309739F0AA
:102A700022E0DC012C930480F581E02D0995089576
:102A8000A3E0B0E0E6E4F5E10C94A41D20914B0234
:102A900030914C0228173907A1F090934C02809393
:102AA0004B02E0914D02F0914E02309751F023E03D
:102AB00029839B838A830680F781E02DCE010196CE
:102AC00009952396E2E00C94C01DA3E0B0E0EBE68C
:102AD000F5E10C94A41D2091490230914A02281777
:102AE0003907A1F090934A0280934902E0914D0288
:102AF000F0914E02309751F024E029839B838A8322
:102B00000680F781E02DCE01019609952396E2E03B
:102B10000C94C01D9C012E5F3F4FAC01485F5F4F7E
:102B200080E02417350709F40895F90191919F0178
:102B30009923B9F38F5FF5CF662349F0FC013296F4
:102B400008962191261729F0E817F907D1F780E0B8
:102B5000089581E008959C01FC0132969FEF80E08A
:102B60004191461751F09F3F19F4411101C0982F30
:102B70008F5F8630A9F79F3F09F40895290F311D13
:102B800097FD3A95F90162830895FC013296089603
:102B90002191261303C0DF0111971C92E817F90752
:102BA000B9F708950E94AB1508950E94C5150895C0
:102BB000029626E0FC0111922A95E9F7089546E075
:102BC00050E00E94DF1D21E0892B09F420E0822FD4
:102BD000089508950E94E9150895811106C081E0C5
:102BE00080934F020E94EA15089582E0F9CF83E0B6
:102BF00080934F020E94EA1508950E94ED150895F2
:102C000081E080934F020E94EA1508950E94001609
:102C10000895089508950E940A1608950895089544
:102C20000E9409160895CF930E940E160E94481024
:102C30000E940F16C0E08C2F0E947D0F892B31F46B
:102C4000CF5FC630C1F780E0CF91089581E0FCCF1F
:102C500085B7806885BF85B7806885BF08951F9256
:102C60001FB61F9211248F939F93AF93BF938091B0
:102C70005002811113C08091750290917602A0914B
:102C80007702B09178024196A11DB11D8093750223
:102C900090937602A0937702B0937802BF91AF91A0
:102CA0009F918F911F901FBE1F90189580917D025C
:102CB000843031F10E948B021092500288E190E042
:102CC00020E40FB6F894A895809360000FBE20937F
:102CD000600083B7817F846083BF83B7816083BFD7
:102CE0007894889583B78E7F83BF0FB6F894A895A4
:102CF00080916000886180936000109260000FBE38
:102D000008950E940C060E949002089582E084BDFE
:102D100093E095BD9AEF97BD80936E0008952FB70D
:102D2000F8948091750290917602A0917702B0910B
:102D300078022FBF08952FB7F894609175027091B3
:102D4000760280917702909178022FBF08959C01BE
:102D50004FB7F8948091750290917602A091770216
:102D6000B09178024FBF821B930B089578941F9205
:102D70001FB61F9211248F939F93AF93BF9380919F
:102D8000750290917602A0917702B0917802019637
:102D9000A11DB11D8093750290937602A0937702D6
:102DA000B0937802BF91AF919F918F911F901FBEFA
:102DB0001F90189587E797E7909301088093000884
:102DC00088E19AE00FB6F894A895809360000FBE52
:102DD00090936000FFCF88E19AE00FB6F894A89531
:102DE000809360000FBE90936000FFCF80915902E6
:102DF00008959B01BA0190917D029430E9F48F709F
:102E00008093E9009FEF8091E800915085FD06C016
:102E100085ED8A95F1F700009111F5CF8091E800DA
:102E200085FF0AC050E040E0C9010E94F31880917C
:102E3000E8008E778093E800089543E050E0BC01FD
:102E400082E00E94F916089546E050E0BC0182E05D
:102E50000E94F9160895CF93DF93EC0148E050E00B
:102E6000BC0181E00E94F91688E0FE01A1E5B2E014
:102E700001900D928A95E1F7DF91CF9108958091AD
:102E80007C02811109C00E94831A0E94E01A80917D
:102E9000E20084608093E200089510927C0208951D
:102EA0000E94001608956091790281E0611101C0CD
:102EB00080E00E94F715089590917D0281E09430A2
:102EC00009F080E0609179020E94FD15089542E0CA
:102ED00061EC81E00E94FF1942E261EC82E00E9415
:102EE000FF1990917D0281E0943009F080E06091BB
:102EF00079020E94ED15089580917F02833009F4D4
:102F000061C030F48130D1F1823009F49EC008955F
:102F10008A3009F48AC08B3009F46FC0893009F017
:102F200050C080917E02813209F04BC080918202B4
:102F300090918302029708F044C08091E800877F57
:102F40008093E8008091E80082FF37C09091F30001
:102F50008091F200029731F48091F100813011F0FC
:102F6000863021F48091F100809359028091E8002D
:102F70008B778093E8000E94331A23C080917E02F1
:102F8000813AF9F48091E800877F8093E80080918E
:102F9000820290918302892B61F468E081E592E0DE
:102FA00070E00E9442198091E8008B778093E800DE
:102FB000089560E090E080E0F3CF80917D02811180
:102FC000C1CF089580917E02813AD9F78091820223
:102FD00090918302892BA9F78091E800877F8093E5
:102FE000E8008091E80080FFFCCF8091120180937F
:102FF000F1008091E8008E77BCCF80917E02813213
:1030000001F78091820290918302892BD1F6809101
:10301000E800877F8093E8000E94331A8091800245
:10302000809312010E940C06089580917E028132E5
:1030300041F68091E800877F8093E8000E94331A70
:103040008091810280935A02089580917E02813A94
:1030500009F0B7CF8091E800877F8093E8008091E6
:10306000E80080FFFCCF80915A02C1CF84B7877FF0
:1030700084BF0FB6F894A895809160008861809312
:103080006000109260000FBE80E890E00FB6F894E8
:1030900080936100909361000FBE0E940616089510
:1030A0000E94831A0E94E01AE2EEF0E080818460C0
:1030B000808378940E945F1D08958AE091E00E94C9
:1030C0001515089580917D02853031F480917D023F
:1030D000853019F00E94811608950E94561680913D
:1030E0007B02882399F30E941316882379F30E94A8
:1030F000DD180E940C06EACF08959A0140918402DF
:10310000509185020E9485180895492F5527433014
:10311000510519F168F44130510509F444C04230B9
:10312000510509F445C090E080E050E040E025C042
:103130004132510549F142325105A9F780E490E04E
:1031400048EB52E061157105C1F08BE790E04DE36B
:1031500052E06130710589F0E6CF99278130910501
:1031600081F0009729F00297F1F6ECECF1E002C053
:10317000ECEEF1E0849190E0AF01F90151834083DE
:103180000895ECEDF1E0F6CF89E090E042E052E006
:103190006115710591F389E090E04BE152E06130F7
:1031A000710559F3C0CF82E190E04BE252E0E5CFE8
:1031B0008BE390E040EF51E0E0CF80E189BD82E118
:1031C00089BD09B400FEFDCF8091D8008F7D80932A
:1031D000D8008091E00082608093E0008091E00060
:1031E00081FDFCCF0895AF92BF92CF92DF92FF9204
:1031F0000F931F93CF93DF936C01EB018A010E9421
:10320000521AF82E811123C00115110539F0F80169
:1032100080819181C81BD90BC80ED91EB12CA12C5D
:103220002097A9F08091E80085FD22C08091E800F8
:103230008E778093E80001151105A1F0F8018081D7
:103240009181A80EB91EB182A08285E0F82E8F2D43
:10325000DF91CF911F910F91FF90DF90CF90BF90A2
:10326000AF9008950E94521A8823D1F2F82EEFCF22
:10327000F60181916F018093F1002197FFEFAF1A62
:10328000BF0ACECFFC0180918402909185028617FF
:103290009707A0F06115710529F49091E8009E77D9
:1032A0009093E80090E06115710551F4911108C008
:1032B0008091E80082FF34C080E00895BC01F2CF25
:1032C00080917D028823C1F18530C1F18091E800B1
:1032D00083FD30C08091E80082FDEACF8091E80054
:1032E00080FFE1CF8091F3002091F200382F61152B
:1032F000710519F02830310558F091E0283031057A
:1033000009F090E02091E8002E772093E800CBCFE1
:1033100081918093F100615071092F5F3F4FE7CF9A
:1033200080917D02882341F0853041F08091E80052
:1033300083FFBECF81E0089582E0089583E0089581
:10334000FC01809184029091850286179707A0F076
:103350006115710529F48091E8008E778093E8006B
:1033600090E06115710551F4911108C08091E80059
:1033700082FF35C080E00895BC01F2CF80917D02CC
:103380008823C9F18530C9F18091E80083FD31C0FF
:103390008091E80082FDEACF8091E80080FFE1CFD4
:1033A0008091F3002091F200382F6115710519F01A
:1033B0002830310558F091E02830310509F090E0CF
:1033C0008091E8008E778093E800CBCF8491809342
:1033D000F1003196615071092F5F3F4FE6CF809128
:1033E0007D02882341F0853041F08091E80083FF21
:1033F000BDCF81E0089582E0089583E00895982F7D
:10340000973028F08F708093E90081E008959093C1
:10341000E900242F762F50E0981731F07091EC00DE
:103420002091ED005091F00021FD02C09F5FE8CF98
:103430003091EB003E7F3093EB003091ED003D7F0B
:103440003093ED003091EB0031603093EB007093DE
:10345000EC002093ED005093F0002091EE0027FD4A
:10346000E5CF80E0089580917E0287FF13C08091B0
:10347000E80082FF06C08091E8008B778093E80027
:1034800004C080917D028111F2CF089580917D0268
:103490008823D9F38091E80080FFF8CF8091E8007D
:1034A0008E77ECCF2091E4003091E50095E6A901FC
:1034B0002091EC00822F817020FF06C08091E800EF
:1034C00080FF06C080E008952091E80022FD1AC028
:1034D00080917D02882389F0853089F08091EB000E
:1034E00085FD0FC02091E4003091E500421753079D
:1034F000F9F29150E1F684E0089582E0089583E0C6
:10350000089581E008950E94F21A0E94FA1AE0EEEE
:10351000F0E0808181608083E8EDF0E080818F774A
:10352000808319BCA7EDB0E08C918E7F8C93808155
:103530008F7E808310927C0208950F931F93CF9308
:10354000DF930E94F21A0E94FA1AC8EDD0E0888137
:103550008F77888388818068888388818F7D88833E
:1035600019BC10927D021092790210927B02109287
:103570007A0200EE10E0F80180818B7F80838881E1
:103580008160888342E060E080E00E94FF19E1EE04
:10359000F0E080818E7F8083E2EEF0E080818160C8
:1035A0008083808188608083F80180818E7F808322
:1035B000888180618883DF91CF911F910F91089559
:1035C000E8EDF0E080818F7E8083E7EDF0E08081A0
:1035D0008160808384E082BF81E080937C020E94CE
:1035E0009D1A0895E8EDF0E080818E7F808310922F
:1035F000E20008951092DA001092E10008951F92FF
:103600000F920FB60F9211242F933F934F935F9316
:103610006F937F938F939F93AF93BF93EF93FF939A
:103620008091E10082FF0BC08091E20082FF07C021
:103630008091E1008B7F8093E1000E945E1D80916C
:10364000DA0080FF19C08091D80080FF15C08091FA
:10365000DA008E7F8093DA008091D90080FF96C0D7
:1036600080E189BD82E189BD09B400FEFDCF81E022
:1036700080937D020E943F178091E10080FF19C076
:103680008091E20080FF15C08091E2008E7F8093E0
:10369000E2008091E20080618093E2008091D80096
:1036A00080628093D80019BC85E080937D020E94DF
:1036B00053178091E10084FF2BC08091E20084FFCA
:1036C00027C080E189BD82E189BD89B5982F9170BD
:1036D00080FFFBCF8091D8008F7D8093D8008091B0
:1036E000E1008F7E8093E1008091E2008F7E8093E5
:1036F000E2008091E20081608093E2008091790293
:10370000882309F449C084E080937D020E945C17FD
:103710008091E10083FF29C08091E20083FF25C0F2
:103720008091E100877F8093E10082E080937D02B9
:10373000109279028091E1008E7F8093E100809168
:10374000E2008E7F8093E2008091E20080618093AE
:10375000E20042E060E080E00E94FF198091F0000A
:1037600088608093F0000E945017FF91EF91BF9105
:10377000AF919F918F917F916F915F914F913F9109
:103780002F910F900FBE0F901F90189519BC10929B
:103790007D020E944D1770CF8091E30087FD93E07A
:1037A00090937D02B3CF1F920F920FB60F92112408
:1037B0002F933F934F935F936F937F938F939F9339
:1037C000AF93BF93CF93DF93EF93FF93D091E90033
:1037D000DF708091EC00C82FC17080FDC0E81092AE
:1037E000E9008091F000877F8093F00078940E9438
:1037F000171C1092E9008091F00088608093F0001F
:10380000CD2BCF70C093E900FF91EF91DF91CF9165
:10381000BF91AF919F918F917F916F915F914F91E8
:103820003F912F910F900FBE0F901F901895AAE215
:10383000B0E0EDE1FCE10C94A31D8EE792E0209155
:10384000F100FC012193CF01F2E086389F07B9F720
:103850000E947C178091E80083FF1EC180917E0248
:1038600090917F029A3008F017C1E92FF0E0E258FA
:10387000F14E0C948E1D803899F0823809F00CC1FD
:10388000809182028F70873008F006C18093E90032
:103890008091EB0085FB882780F91092E90006C033
:1038A00080917A0290917B02911182609091E80060
:1038B000977F9093E8008093F1001092F10080913F
:1038C000E8008E77E5C0882309F4D3C0823009F080
:1038D000E3C0809180028111D6C0809182028F70F6
:1038E0002FEF280F263008F0D7C08093E9002091F1
:1038F000EB0020FFC8C0933031F48091EB00806270
:103900008093EB00C0C09091EB0090619093EB002E
:1039100021E030E001C0220F8A95EAF72093EA0007
:103920001092EA008091EB008860EACF8111B4C068
:10393000109180021F778091E3008078812B809323
:10394000E3008091E800877F8093E8000E94331AAB
:103950008091E80080FFFCCF8091E3008068809335
:10396000E30082E0111183E080937D0295C08058CE
:10397000823008F091C080918002909181028C3D4C
:1039800023E09207A1F583E08A838AE289834FB717
:10399000F894DE01139620E03EE051E2E32FF0E0E0
:1039A00050935700E49120FF03C0E295EF703F5F12
:1039B000EF708E2F90E0EA30C0F0C7968D939D9304
:1039C0002F5F243159F74FBF8091E800877F8093A4
:1039D000E8006AE270E0CE0101960E9442198091EF
:1039E000E8008B778093E80057C0C096E7CF6091DE
:1039F000820270918302AE014F5F5F4F0E947D187B
:103A0000BC01892B09F448C09091E800977F9093FE
:103A1000E80089819A810E94A019E1CF8038E1F500
:103A20008091E800877F8093E800809179028093FD
:103A3000F10045CF811130C090918002923060F545
:103A40008091E800877F8093E800909379020E943C
:103A5000331A80917902882311F084E005C08091A7
:103A6000E30087FDFACF81E080937D020E94671713
:103A700013C080918002813079F481E0933009F0A5
:103A800080E080937B021092E9008091E800877FBC
:103A90008093E8000E94331A8091E80083FF0AC0F7
:103AA0008091E800877F8093E8008091EB0080623E
:103AB0008093EB00AA96E3E00C94BF1D0895CF938A
:103AC00080917D028823A1F0C091E900CF70909190
:103AD000EC00892F817090FD80E8C82B1092E900DE
:103AE0008091E80083FD0E94171CCF70C093E9000D
:103AF000CF91089597FB072E16F4009407D077FD19
:103B000009D00E94CB1D07FC05D03EF4909581950D
:103B10009F4F0895709561957F4F0895EE0FFF1F99
:103B20000590F491E02D09942F923F924F925F926D
:103B30006F927F928F929F92AF92BF92CF92DF92BD
:103B4000EF92FF920F931F93CF93DF93CDB7DEB722
:103B5000CA1BDB0B0FB6F894DEBF0FBECDBF0994B6
:103B60002A88398848885F846E847D848C849B840D
:103B7000AA84B984C884DF80EE80FD800C811B811B
:103B8000AA81B981CE0FD11D0FB6F894DEBF0FBE4A
:103B9000CDBFED010895AA1BBB1B51E107C0AA1FB1
:103BA000BB1FA617B70710F0A61BB70B881F991FDE
:103BB0005A95A9F780959095BC01CD010895FB0118
:103BC000DC0104C08D910190801921F441505040D6
:103BD000C8F7881B990B0895FB01DC0102C0019016
:103BE0000D9241505040D8F70895F999FECF92BDFB
:103BF00081BDF89A992780B50895A8E1B0E042E028
:103C000050E00C94391EDC01A40FB51F4150504008
:103C100048F0CB01840F951F2E910E94141E415035
:103C20005040D0F70895262FF999FECF92BD81BD5F
:103C3000F89A019700B4021639F01FBA20BD0FB6EA
:103C4000F894FA9AF99A0FBE08950396272F0E94C6
:103C5000141E0E94131E252F0E94141E242F0C9444
:103C6000141E0196272F0E94141E0C94131EDC01B3
:103C7000CB01FC01F999FECF06C0F2BDE1BDF89A77
:103C8000319600B40D9241505040B8F70895F89421
:103C9000FFCF0504050455045504BA04D6043404C2
:103CA0003404DB044C055B055B05BA132E14C21308
:103CB0008C139013C6139413CA13D613A01327148E
:103CC000A413DA13A813DE130614AC13E2130D14B5
:103CD000B213E813F0139813CE139C13D213B61338
:103CE000EC13FC13161425148613BE133514E914B3
:103CF000EF14D814E314F514FB1401153B1C631CDA
:103D00004C1D631C4C1D961CB71C4C1D0E1D1A1D12
:103D10001402280850011E0A1401F6162B17241746
:103D20001D1701E200E900EA00B500B600B700CDBA
:103D3000008301CC008A0192019401210223022414
:103D4000022502260227022A02B300B4006F007087
:103D5000009F01CB019F02A002818283E200E90063
:103D6000EA00B500B600B700CD008301CC008A019F
:103D70009201940121022302240225022602270235
:103D80002A02B300B4006F0070009F01CB019F02B4
:103D9000A00281828397C6343536323331F7F6F587
:083DA000F493929190946600E7
:00000001FF
